PSC002180016577556601000000000156324495MXP0000000002511.40TRIPLAY TABLEROS DE ECATEPEC, 40002OP4134                        3000000H
PSC002180434600855288000000000156324495MXP0000000001915.67TINOCO MIRANDA MIGUEL         40002OP4121                        3000000H
PSC002180021873137272000000000156324495MXP0000000000512.95GARLOCK DE MEXICO S.A. DE C.V.40002OP4129                        3000000H
PSC002180021809439627000000000156324495MXP0000000000603.78LG SEGURIDAD S.A DE C.V       40002OP4135                        3000000H
PSC002180048261276061000000000156324495MXP0000000000690.57COBRE PARA SIEMPRE S.A DE C.V 40002OP4133                        3000000H
PSC002180021809439627000000000156324495MXP0000000000475.60LG SEGURIDAD S.A DE C.V       40002OP4142                        3000000H
PSC002180069800415204000000000156324495MXP0000000000848.52MICRO HERRAMIENTAS , S.A. DE C40002OP4138                        3000000H
PSC002180021809439627000000000156324495MXP0000000000046.40LG SEGURIDAD S.A DE C.V       40002OP4159                        3000000H
PSC002180408201497796000000000156324495MXP0000000001271.58AUSTREBERTO DOMINGUEZ SANCHEZ 40002OP4164                        3000000H
