PSC002180021809439627000000000156324495MXP0000000001438.69LG SEGURIDAD S.A DE C.V       40002OP4182                        5000000H
PSC002180021809439627000000000156324495MXP0000000000118.32LG SEGURIDAD S.A DE C.V       40002OP4183                        5000000H
PSC002180098684270597000000000156324495MXP0000000016274.22ORTEGA RODRIGUEZ ELEAZAR      40002OP4194                        5000000H
PSC002180021809439627000000000156324495MXP0000000000114.84LG SEGURIDAD S.A DE C.V       40002OP4185                        5000000H
PSC014180655002773175000000000156324495MXP0000000000962.80DISTRIBUIDORA CARPINTODO S.A. 40014OP4187                        5000000H
PSC072180002473272162000000000156324495MXP0000000000197.90JAD SUMINISTROS S.A DE C.V    40072OP4198                        5000000H
PSC002180069800415204000000000156324495MXP0000000000000.00MICRO HERRAMIENTAS , S.A. DE C40002OP4192                        5000000H
PSC002180069800415204000000000156324495MXP0000000000000.00MICRO HERRAMIENTAS , S.A. DE C40002OP4195                        5000000H
PSC002180021809439627000000000156324495MXP0000000000175.74LG SEGURIDAD S.A DE C.V       40002OP4200                        5000000H
PSC002180063369211107000000000156324495MXP0000000003549.34TORNILLOS BAHERS, S.A. DE C.V.40002OP4203                        5000000H
PSC002180018358127545000000000156324495MXP0000000000444.86SUMINISTROS DE EMPAQUETADURAS 40002OP4206                        5000000H
