PSC002680476300609975000000000156324495MXP0000000019005.152D2 SA DE CV (JURIQUILLA)     40002OP4097                        1000000H
PSC014180655032456802000000000156324495MXP0000000002839.17CINTAS Y ADHESIVOS VJI S.A DE 40014OP4107                        1000000H
PSC002180023360817029000000000156324495MXP0000000000192.56LA CENTRAL DE FORJAS Y CERRADU40002OP4113                        1000000H
PSC002180069800415204000000000156324495MXP0000000000630.11MICRO HERRAMIENTAS , S.A. DE C40002OP4114                        1000000H
PSC002180026042355563000000000156324495MXP0000000000385.12DISTRIBUIDORA DE PLAFONES Y PA40002OP4119                        1000000H
PSC014180920007343905000000000156324495MXP0000000000618.02FERRETERIA Y MADERAS TAURO S.A40014OP4120                        1000000H
PSC002180016577556601000000000156324495MXP00000000002511.4TRIPLAY TABLEROS DE ECATEPEC, 40002OP4134                        1000000H
PSC002180434600855288000000000156324495MXP0000000001915.67TINOCO MIRANDA MIGUEL         40002OP4121                        1000000H
PSC002180021873137272000000000156324495MXP0000000000512.95GARLOCK DE MEXICO S.A. DE C.V.40002OP4129                        1000000H
PSC002180442900265285000000000156324495MXP00000000000069.6PROVINTOR S.A DE C.V          40002OP4123                        1000000H
PSC002180021809439627000000000156324495MXP0000000000603.78LG SEGURIDAD S.A DE C.V       40002OP4135                        1000000H
PSC002180048261276061000000000156324495MXP0000000000690.57COBRE PARA SIEMPRE S.A DE C.V 40002OP4133                        1000000H
