PSC002580086100396279000000000156324495MXP0000000008694.20SERVICIOS ESPECIALIZADOS DE MO40002OP4307                        6000000H
PSC002180063369211107000000000156324495MXP0000000000621.85TORNILLOS BAHERS, S.A. DE C.V.40002OP4289                        6000000H
PSC014180655032456802000000000156324495MXP0000000002918.00CINTAS Y ADHESIVOS VJI S.A DE 40014OP4236                        6000000H
PSC002180021809439627000000000156324495MXP0000000000775.17LG SEGURIDAD S.A DE C.V       40002OP4216                        6000000H
PSC002180026042355563000000000156324495MXP0000000000517.94DISTRIBUIDORA DE PLAFONES Y PA40002OP4227                        6000000H
PSC014180655048307181000000000156324495MXP0000000000951.20TORNILLOS MARQUEZ S. DE R.L DE40014OP4235                        6000000H
PSC002180063369211107000000000156324495MXP0000000000032.48TORNILLOS BAHERS, S.A. DE C.V.40002OP4242                        6000000H
PSC002180434600855288000000000156324495MXP0000000002394.59TINOCO MIRANDA MIGUEL         40002OP4264                        6000000H
PSC002180021809439627000000000156324495MXP0000000000609.00LG SEGURIDAD S.A DE C.V       40002OP4274                        6000000H
PSC002180021809439627000000000156324495MXP0000000001815.40LG SEGURIDAD S.A DE C.V       40002OP4277                        6000000H
PSC002180069800415204000000000156324495MXP0000000000404.38MICRO HERRAMIENTAS , S.A. DE C40002OP4309                        6000000H
PSC002180063369211107000000000156324495MXP0000000000062.06TORNILLOS BAHERS, S.A. DE C.V.40002OP4312                        6000000H
PSC002180700886386603000000000156324495MXP0000000002412.80COMERCIALIZADORA DE INSUMOS MI40002OP4273                        6000000H
PSC002580008777305574000000000156324495MXP0000000000163.61HOME DEPOT S. DE R.L. DE C.V. 40002OP4291                        6000000H
PSC014180920007343905000000000156324495MXP0000000000192.03FERRETERIA Y MADERAS TAURO S.A40014OP4285                        6000000H
PSC014180920007343905000000000156324495MXP0000000034675.43FERRETERIA Y MADERAS TAURO S.A40014OP4322                        6000000H
PSC002180045871527844000000000156324495MXP0000000000147.32APPLIED MEXICO S.A DE C.V     40002OP4318                        6000000H
PSC072180002473272162000000000156324495MXP0000000001214.23JAD SUMINISTROS S.A DE C.V    40072OP4317                        6000000H
PSC002180021809439627000000000156324495MXP0000000000819.54LG SEGURIDAD S.A DE C.V       40002OP4323                        6000000H
PSC002180012500420821000000000156324495MXP0000000000000.00SALCEDO Y MARTIN S. DE R.L. DE40002OP4332                        6000000H
PSC002180026918896059000000000156324495MXP0000000001618.20EUROELECTRICA S.A. DE C.V.    40002OP4337                        6000000H
PSC002180021873137272000000000156324495MXP0000000000512.40GARLOCK DE MEXICO S.A. DE C.V.40002OP4333                        6000000H
