PTC000000000157177526000000000156324495MXP0000000003064.21OP9284100                     
PSC002180018306972645000000000156324495MXP0000000000512.72PROVEEDORA INDUSTRIAL DE TLALN40002OP9234                        0000100H
PTC000000000177220111000000000156324495MXP0000000000419.20OP9295100                     
PSC002180436301194738000000000156324495MXP0000000000547.54DAVID ENRIQUE DIAZ GARCIA     40002OP9303                        0000100H
PSC014180920007343905000000000156324495MXP0000000001025.03FERRETERIA Y MADERAS TAURO S.A40014OP9297                        0000100H
PSC021180001210025304000000000156324495MXP0000000003480.00FERROENVASES DE MEXICO S.A. DE40021OP9302                        0000100H
PSC036180160030300106000000000156324495MXP0000000006451.92HYGOLET S.A. DE C.V.          40036OP9287                        0000100H
PSC002180026042355563000000000156324495MXP0000000000598.56DISTRIBUIDORA DE PLAFONES Y PA40002OP9289                        0000100H
PSC002180069800415204000000000156324495MXP0000000000405.19MICRO HERRAMIENTAS , S.A. DE C40002OP9306                        0000100H
PSC002180063369211107000000000156324495MXP0000000000248.45TORNILLOS BAHERS, S.A. DE C.V.40002OP9279                        0000100H
PSC002180018306972645000000000156324495MXP0000000000769.08PROVEEDORA INDUSTRIAL DE TLALN40002OP9277                        0000100H
PSC002180018358127545000000000156324495MXP0000000004976.40SUMINISTROS DE EMPAQUETADURAS 40002OP9207                        0000100H
PTC000000000449582835000000000156324495MXP0000000007566.53OP9152100                     
