PSC002180026042355563000000000156324495MXP0000000008413.07DISTRIBUIDORA DE PLAFONES Y PA40002OP12359                       0000144H
PSC002180026042355563000000000156324495MXP0000000003828.00DISTRIBUIDORA DE PLAFONES Y PA40002OP12694                       0000144H
PSC021180041000783117000000000156324495MXP0000000005044.19FERRECSA S.A DE C.V           40021OP12938                       0000144H
PTC000000000449582835000000000156324495MXP0000000006996.19OP12959144                    
PSC021430040553428777000000000156324495MXP0000000008385.23LOARCA PRIMERO ROSA SUSANA    40021OP12909                       0000144H
PSC002180063741422491000000000156324495MXP0000000000438.48TAMAYO ERGUERA ROSAURA VIOLETA40002OP13009                       0000144H
PSC021180041000783117000000000156324495MXP0000000004919.18FERRECSA S.A DE C.V           40021OP13010                       0000144H
PSC036180500298422389000000000156324495MXP0000000002270.00JIMENEZ DURAN IRVING JAIR     40036OP13063                       0000144H
PSC014180655032456802000000000156324495MXP0000000004377.00CINTAS Y ADHESIVOS VJI S.A DE 40014OP13047                       0000144H
PSC002180026042355563000000000156324495MXP0000000000185.60DISTRIBUIDORA DE PLAFONES Y PA40002OP13138                       0000144H
PSC002180063369211107000000000156324495MXP0000000002293.78TORNILLOS BAHERS, S.A. DE C.V.40002OP13171                       0000144H
PTC000000000109497927000000000156324495MXP0000000001418.04OP13154144                    
PTC000000000147958021000000000156324495MXP0000000004238.64OP13169144                    
PSC002180018358127545000000000156324495MXP0000000002463.84SUMINISTROS DE EMPAQUETADURAS 40002OP13165                       0000144H
PSC002180026872257352000000000156324495MXP0000000001670.40IMPORTACIONES BARRETO S.A DE C40002OP13229                       0000144H
PTC000000000147958021000000000156324495MXP0000000002737.60OP13226144                    
PSC002180063741549484000000000156324495MXP0000000000366.37ABASTO BASICO S.A  DE C.V     40002OP13220                       0000144H
PTC000000000444344820000000000156324495MXP0000000006866.18OP13224144                    
PTC000000000446313000000000000156324495MXP0000000000239.53OP13231144                    
PSC021180041000783117000000000156324495MXP0000000005143.20FERRECSA S.A DE C.V           40021OP13207                       0000144H
PSC002180018306838404000000000156324495MXP0000000002758.48OFIDISA S.A. DE C.V.          40002OP13233                       0000144H
