PSC002180700886386603000000000156324495MXP0000000001624.00COMERCIALIZADORA DE INSUMOS MI40002OP14440                       0000181H
PSC014180655032456802000000000156324495MXP0000000026320.45CINTAS Y ADHESIVOS VJI S.A DE 40014OP14368                       0000181H
PSC021180041000783117000000000156324495MXP0000000017749.40FERRECSA S.A DE C.V           40021OP14409                       0000181H
PSC021430040553428777000000000156324495MXP0000000000708.04LOARCA PRIMERO ROSA SUSANA    40021OP14494                       0000181H
