PSC002180052160875012000000000156324495MXP0000000011436.50TECNOLOGIAS DE MANTENIMIENTO V40002OP6439                        0000054H
PSC002180700550359791000000000156324495MXP0000000014458.34NAKOMSA KOMFORT AMBIENTAL S.A 40002OP6569                        0000054H
PTC000000000153297152000000000156324495MXP0000000008851.73OP662554                      
PSC002180434600855288000000000156324495MXP0000000002394.59TINOCO MIRANDA MIGUEL         40002OP6638                        0000054H
PSC002180050560207075000000000156324495MXP0000000001886.07HERNANDEZ BENHUMEA ELVIRA ARAC40002OP6639                        0000054H
PSC002180063741422491000000000156324495MXP0000000005104.00TAMAYO ERGUERA ROSAURA VIOLETA40002OP6635                        0000054H
PTC000000000106390900000000000156324495MXP0000000000292.81OP663754                      
PSC002580008777305574000000000156324495MXP0000000013455.77HOME DEPOT S. DE R.L. DE C.V. 40002OP6604                        0000054H
