PSC014180655048307181000000000156324495MXP0000000000049.88TORNILLOS MARQUEZ S. DE R.L DE40014OP7323                        0000060H
PTC000000000444344820000000000156324495MXP0000000000705.30OP731260                      
PSC002180018358127545000000000156324495MXP0000000000923.94SUMINISTROS DE EMPAQUETADURAS 40002OP7315                        0000060H
PSC002180050560207075000000000156324495MXP0000000002705.21HERNANDEZ BENHUMEA ELVIRA ARAC40002OP7311                        0000060H
PSC002180436301194738000000000156324495MXP0000000000272.60DAVID ENRIQUE DIAZ GARCIA     40002OP7327                        0000060H
PSC002180700419344151000000000156324495MXP0000000000121.80OLIVARES LIRA JOSE ANTONIO    40002OP7337                        0000060H
PTC000000000192877368000000000156324495MXP0000000002236.48OP732860                      
PSC002180045871527844000000000156324495MXP0000000000259.84APPLIED MEXICO S.A DE C.V     40002OP7329                        0000060H
PTC000000000448341729000000000156324495MXP0000000000715.49OP734960                      
PSC132180000062958085000000000156324495MXP0000000000185.60BUBBLE CLEAN S.A DE C.V       40132OP7333                        0000060H
PSC002180037178105883000000000156324495MXP0000000002130.08PINTURAS JACARANDAS S.A DE C.V40002OP7350                        0000060H
PSC002180094664652566000000000156324495MXP0000000000707.83REPRESENTACIONES INDUSTRIALES 40002OP7345                        0000060H
PSC002180018358127545000000000156324495MXP0000000001197.70SUMINISTROS DE EMPAQUETADURAS 40002OP7351                        0000060H
PSC002180050560207075000000000156324495MXP0000000000180.96HERNANDEZ BENHUMEA ELVIRA ARAC40002OP7300                        0000060H
