PSC002180087000561642000000000156324495MXP0000000003445.20INDUSTRIAS TAMER SA DE CV     40002OP5655                        0000031H
PSC002180063369211107000000000156324495MXP0000000000719.08TORNILLOS BAHERS, S.A. DE C.V.40002OP5652                        0000031H
PSC002180436301194738000000000156324495MXP0000000000533.60DAVID ENRIQUE DIAZ GARCIA     40002OP5653                        0000031H
PSC002180099400113426000000000156324495MXP0000000000306.00VALVULAS Y TUBOS DE MEXICO S.A40002OP5633                        0000031H
PSC002180063369211107000000000156324495MXP0000000000062.27TORNILLOS BAHERS, S.A. DE C.V.40002OP5654                        0000031H
