PSC002180063741422491000000000156324495MXP0000000005188.68TAMAYO ERGUERA ROSAURA VIOLETA40002OP16062                       0000228H
PSC002180018306972645000000000156324495MXP0000000007381.08PROVEEDORA INDUSTRIAL DE TLALN40002OP16084                       0000228H
PSC002180700419344151000000000156324495MXP0000000003712.00OLIVARES LIRA JOSE ANTONIO    40002OP16090                       0000228H
PSC002180026042355563000000000156324495MXP0000000007397.71DISTRIBUIDORA DE PLAFONES Y PA40002OP16182                       0000228H
PTC000000000447740921000000000156324495MXP0000000002236.12OP16191228                    
PSC002180018306972645000000000156324495MXP0000000004598.82PROVEEDORA INDUSTRIAL DE TLALN40002OP16197                       0000228H
