002002180045875152914MXP0000004999999.00CARDENAS SANCHEZ GUILLERMO DAN161_CARDENAS SANCHEZ GUILLERMO40ferreterapegaso@hotmail.com                                                      00KNA0011ALTA EXITOSA                            
000000218003290002981MXP0000004999999.00LABORATORIOS FRU Y VEU SA DE C1254_LABORATORIOS FRU Y VEU SA40lilian.cortes@fruyveu.com.mx                                                     NOKNE0010ERROR DE BANCO EN CUENTA CLABE          
021021180040568642005MXP0000004999999.00CRUZ OLGUIN DIEGO MANUEL      3_CRUZ OLGUIN DIEGO MANUEL    40ferreterapegaso@hotmail.com                                                      NOKNE0818REGISTRO YA EXISTE                      
012012180001828085790MXP0000004999999.00GALVEZ ZEPEDA RICARDO         4_GALVEZ ZEPEDA RICARDO       40ferreterapegaso@hotmail.com                                                      NOKNE0080CTA CLABE BANCOMER                      
002002180014106618093MXP0000004999999.00EL SURTIDOR DE OBSERVATORIO S.6_EL SURTIDOR DE OBSERVATORIO 40fflores@elsurtidor.com                                                           NOKNE0818REGISTRO YA EXISTE                      
021021180041000783117MXP0000004999999.00FERRECSA S.A DE C.V           18_FERRECSA S.A DE C.V        40jluis.trejo@ferrecsa.com.mx                                                      NOKNE0818REGISTRO YA EXISTE                      
044044180001070487703MXP0000004999999.00CHRISALIM  MEXICO S.A DE C.V (22_CHRISALIM  MEXICO S.A DE C.40ferreterapegaso@hotmail.com                                                      NOKNE0818REGISTRO YA EXISTE                      
002002180021809439627MXP0000004999999.00LG SEGURIDAD S.A DE C.V       33_LG SEGURIDAD S.A DE C.V    40ventas.tmk2@lseguridad                                                           NOKNE0818REGISTRO YA EXISTE                      
036036180500298422389MXP0000004999999.00JIMENEZ DURAN IRVING JAIR     34_JIMENEZ DURAN IRVING JAIR  40ventas@fermexsa.com.mx                                                           NOKNE0818REGISTRO YA EXISTE                      
002002180045871527844MXP0000004999999.00APPLIED MEXICO S.A DE C.V     41_APPLIED MEXICO S.A DE C.V  40ferreterapegaso@hotmail.com                                                      NOKNE0818REGISTRO YA EXISTE                      
002002180442900265285MXP0000004999999.00PROVINTOR S.A DE C.V          42_PROVINTOR S.A DE C.V       40ferreterapegaso@hotmail.com                                                      NOKNE0818REGISTRO YA EXISTE                      
002002180063741549484MXP0000004999999.00ABASTO BASICO S.A  DE C.V     44_ABASTO BASICO S.A  DE C.V  40ferreterapegaso@hotmail.com                                                      NOKNE0818REGISTRO YA EXISTE                      
002002180025641310434MXP0000004999999.00ACEROS ALCORSA  S.A DE C.V    47_ACEROS ALCORSA  S.A DE C.V 40ferreterapegaso@hotmail.com                                                      NOKNE0818REGISTRO YA EXISTE                      
072072180005261414346MXP0000004999999.00ALCARAZ SILVA HECTOR ALBERTO T53_ALCARAZ SILVA HECTOR ALBERT40ferreterapegaso@hotmail.com                                                      NOKNE0818REGISTRO YA EXISTE                      
012012180004425122037MXP0000004999999.00ALIS ABASTECEDORA NACIONAL S.A54_ALIS ABASTECEDORA NACIONAL 40ferreterapegaso@hotmail.com                                                      NOKNE0080CTA CLABE BANCOMER                      
012012180001910603682MXP0000004999999.00ALUMINIOS RIESA SA DE CV      55_ALUMINIOS RIESA SA DE CV   40ferreterapegaso@hotmail.com                                                      NOKNE0080CTA CLABE BANCOMER                      
002002180099400113426MXP0000004999999.00VALVULAS Y TUBOS DE MEXICO S.A58_VALVULAS Y TUBOS DE MEXICO 40ferreterapegaso@hotmail.com                                                      NOKNE0818REGISTRO YA EXISTE                      
012012180001365175956MXP0000004999999.00FBJ MEXICO S.A. DE C.V.       59_FBJ MEXICO S.A. DE C.V.    40ferreterapegaso@hotmail.com                                                      NOKNE0080CTA CLABE BANCOMER                      
002002180063369595920MXP0000004999999.00VALVULANDIA S.A. DE C.V.      61_VALVULANDIA S.A. DE C.V.   40ferreterapegaso@hotmail.com                                                      NOKNE0818REGISTRO YA EXISTE                      
002002180071800481161MXP0000004999999.00ALTA TECNOLOGIA EN PROTECCION 63_ALTA TECNOLOGIA EN PROTECCI40ferreterapegaso@hotmail.com                                                      NOKNE0818REGISTRO YA EXISTE                      
014014180605573871404MXP0000004999999.00JULIO PEREZ NAVARRETE         1325_JULIO PEREZ NAVARRETE    40julio5230@yahoo.com                                                              NOKNE0818REGISTRO YA EXISTE                      
002002180087005152661MXP0000004999999.00FERRETERA KIMURA S.A. DE C.V. 64_FERRETERA KIMURA S.A. DE C.40tmosqueda@ferreterakimura.com                                                    NOKNE0818REGISTRO YA EXISTE                      
021021180040197427332MXP0000004999999.00FERRETERA MAX S.A. DE C.V.    66_FERRETERA MAX S.A. DE C.V. 40ferreteramax@prodigy.net.mx                                                      NOKNE0818REGISTRO YA EXISTE                      
012012180004427797305MXP0000004999999.00BESCO SA DE CV                68_BESCO SA DE CV             40aquezada@besco.com.mx                                                            NOKNE0080CTA CLABE BANCOMER                      
002002180011500609492MXP0000004999999.00FERRETERIA LA LIBRA S.A. DE C.70_FERRETERIA LA LIBRA S.A. DE40ferreterapegaso@hotmail.com                                                      NOKNE0047ASUNTO NO VALIDO                        
012012180001818275293MXP0000004999999.00FERRETERIA LA LIBRA S.A. DE C.71_FERRETERIA LA LIBRA S.A. DE40ferreterapegaso@hotmail.com                                                      NOKNE0080CTA CLABE BANCOMER                      
014014180920007343905MXP0000004999999.00FERRETERIA Y MADERAS TAURO S.A73_FERRETERIA Y MADERAS TAURO 40ferreterapegaso@hotmail.com                                                      NOKNE0818REGISTRO YA EXISTE                      
030030020846758102011MXP0000004999999.00BARRETO FLORES LUIS FERNANDO  76_BARRETO FLORES LUIS FERNAND40ferreterapegaso@hotmail.com                                                      NOKNE0818REGISTRO YA EXISTE                      
021021180001210025304MXP0000004999999.00FERROENVASES DE MEXICO S.A. DE77_FERROENVASES DE MEXICO S.A.40ferreterapegaso@hotmail.com                                                      NOKNE0818REGISTRO YA EXISTE                      
021021180040232611184MXP0000004999999.00BARDAHL DE MEXICO  SA DE CV   79_BARDAHL DE MEXICO  SA DE CV40ferreterapegaso@hotmail.com                                                      NOKNE0818REGISTRO YA EXISTE                      
002002180409000736330MXP0000004999999.00CADEQO ALVAREZ CARLOS         81_CADEQO ALVAREZ CARLOS      40ferreterapegaso@hotmail.com                                                      NOKNE0818REGISTRO YA EXISTE                      
021021650040526991477MXP0000004999999.00AUTOADHESIVOS S.DE R.L.       82_AUTOADHESIVOS S.DE R.L.    40ferreterapegaso@hotmail.com                                                      NOKNE0818REGISTRO YA EXISTE                      
002002180700248425238MXP0000004999999.00FORSA FERRETERIA S.A. DE C.V. 83_FORSA FERRETERIA S.A. DE C.40e.avila@forma.mx      /   t.herrera@forsa.mc                                     NOKNE0818REGISTRO YA EXISTE                      
012012180004429102338MXP0000004999999.00CARDENAS ANTUNEZ ERNESTO      84_CARDENAS ANTUNEZ ERNESTO   40ferreterapegaso@hotmail.com                                                      NOKNE0080CTA CLABE BANCOMER                      
002002180011541757486MXP0000004999999.00CASA CRAVIOTO (COBRECENTRO)   86_CASA CRAVIOTO (COBRECENTRO)40ferreterapegaso@hotmail.com                                                      NOKNE0818REGISTRO YA EXISTE                      
002002180486100189156MXP0000004999999.00DIFASING S.A. DE C.V.         87_DIFASING S.A. DE C.V.      40ferreterapegaso@hotmail.com                                                      NOKNE0818REGISTRO YA EXISTE                      
002002180011541757486MXP0000004999999.00CASA CRAVIOTO S.A DE C.V      89_CASA CRAVIOTO S.A DE C.V   402080                                                                             NOKNE0818REGISTRO YA EXISTE                      
014014180655032456802MXP0000004999999.00CINTAS Y ADHESIVOS VJI S.A DE 92_CINTAS Y ADHESIVOS VJI S.A 40ferreterapegaso@hotmail.com                                                      NOKNE0818REGISTRO YA EXISTE                      
014014180655002773175MXP0000004999999.00DISTRIBUIDORA CARPINTODO S.A. 93_DISTRIBUIDORA CARPINTODO S.40ferreterapegaso@hotmail.com                                                      NOKNE0818REGISTRO YA EXISTE                      
002002180063718773458MXP0000004999999.00VENUSTIANO GARCIA MENDEZ      94_VENUSTIANO GARCIA MENDEZ   40ferreterapegaso@hotmail.com                                                      NOKNE0818REGISTRO YA EXISTE                      
002002180021873137272MXP0000004999999.00GARLOCK DE MEXICO S.A. DE C.V.95_GARLOCK DE MEXICO S.A. DE C40ferreterapegaso@hotmail.com                                                      NOKNE0818REGISTRO YA EXISTE                      
002002180045872196096MXP0000004999999.00DISTRIBUIDORA E IMPORTADORA DE98_DISTRIBUIDORA E IMPORTADORA40ferreterapegaso@hotmail.com                                                      NOKNE0818REGISTRO YA EXISTE                      
002002180087000187262MXP0000004999999.00GIMBEL MEXICANA S.A. DE C.V.  99_GIMBEL MEXICANA S.A. DE C.V40ferreterapegaso@hotmail.com                                                      NOKNE0818REGISTRO YA EXISTE                      
002002180037048019119MXP0000004999999.00CUPRUM SA DE CV SUC MARINA    100_CUPRUM SA DE CV SUC MARINA40ferreterapegaso@hotmail.com                                                      NOKNE0818REGISTRO YA EXISTE                      
002002180701205119379MXP0000004999999.00CASA YBERRI S.A. DE C.V.      107_CASA YBERRI S.A. DE C.V.  40casayberri09@gmail.com                                                           NOKNE0818REGISTRO YA EXISTE                      
012012180004438548174MXP0000004999999.00GRUPO PRE-MEX S.A. DE C.V.    110_GRUPO PRE-MEX S.A. DE C.V.40ferreterapegaso@hotmail.com                                                      NOKNE0080CTA CLABE BANCOMER                      
002002180050559270916MXP0000004999999.00CINTAS COVE S.A DE C.V        111_CINTAS COVE S.A DE C.V    40ferreterapegaso@hotmail.com                                                      NOKNE0818REGISTRO YA EXISTE                      
002002180014106917590MXP0000004999999.00GUIA ROJI S.A. DE C.V.        112_GUIA ROJI S.A. DE C.V.    40ferreterapegaso@hotmail.com                                                      NOKNE0818REGISTRO YA EXISTE                      
021021180040109947392MXP0000004999999.00COMERCIALIZADORA DUBLIN  SA DE116_COMERCIALIZADORA DUBLIN  S40ferreterapegaso@hotmail.com                                                      NOKNE0818REGISTRO YA EXISTE                      
002002180700027486045MXP0000004999999.00DISTRIBUIDORA PHOTO SMART S.A.117_DISTRIBUIDORA PHOTO SMART 40ferreterapegaso@hotmail.com                                                      NOKNE0818REGISTRO YA EXISTE                      
002002180026872257352MXP0000004999999.00IMPORTACIONES BARRETO S.A DE C120_IMPORTACIONES BARRETO S.A 40ferreterapegaso@hotmail.com                                                      NOKNE0818REGISTRO YA EXISTE                      
002002180700578595618MXP0000004999999.00HERRAMIENTAS MILWAUKEE, S.A. D121_HERRAMIENTAS MILWAUKEE, S.40r.prieto@ridsamexico.com                                                         NOKNE0818REGISTRO YA EXISTE                      
002002180018306992324MXP0000004999999.00DISTRIBUIDORA TAMEX S.A. DE C.122_DISTRIBUIDORA TAMEX S.A. D40ferreterapegaso@hotmail.com                                                      NOKNE0818REGISTRO YA EXISTE                      
002002180087000561642MXP0000004999999.00INDUSTRIAS TAMER SA DE CV     123_INDUSTRIAS TAMER SA DE CV 40ferreterapegaso@hotmail.com                                                      NOKNE0818REGISTRO YA EXISTE                      
072072180008314244570MXP0000004999999.00HERRAMIENTAS TECNICAS S.A. DE 124_HERRAMIENTAS TECNICAS S.A.40ferreterapegaso@hotmail.com                                                      NOKNE0818REGISTRO YA EXISTE                      
012012180004440820288MXP0000004999999.00INFRA S.A DE C.V (SUC. TLALNE)127_INFRA S.A DE C.V (SUC. TLA40ferreterapegaso@hotmail.com                                                      NOKNE0080CTA CLABE BANCOMER                      
002002180013641780144MXP0000004999999.00DOMINION INDUSTRIAL S.A. DE C.134_DOMINION INDUSTRIAL S.A. D40ferreterapegaso@hotmail.com                                                      NOKNE0818REGISTRO YA EXISTE                      
002002580008777305574MXP0000004999999.00HOME DEPOT S. DE R.L. DE C.V. 131_HOME DEPOT S. DE R.L. DE C408725-salesrep@homedepot.com.mx                                                   NOKNE0818REGISTRO YA EXISTE                      
036036180160030300106MXP0000004999999.00HYGOLET S.A. DE C.V.          132_HYGOLET S.A. DE C.V.      40raultellez@hygolet.com.mx                                                        NOKNE0818REGISTRO YA EXISTE                      
072072180002473272162MXP0000004999999.00JAD SUMINISTROS S.A DE C.V    136_JAD SUMINISTROS S.A DE C.V40ferreterapegaso@hotmail.com                                                      NOKNE0818REGISTRO YA EXISTE                      
002002180087005502907MXP0000004999999.00KLEIN TOOLS DE MEXICO S. DE R.139_KLEIN TOOLS DE MEXICO S. D40ferreterapegaso@hotmail.com                                                      NOKNE0818REGISTRO YA EXISTE                      
002002540409700845941MXP0000004999999.00JAR DEPOT S.A DE C.V          143_JAR DEPOT S.A DE C.V      40ferreterapegaso@hotmail.com                                                      NOKNE0818REGISTRO YA EXISTE                      
002002180023360817029MXP0000004999999.00LA CENTRAL DE FORJAS Y CERRADU144_LA CENTRAL DE FORJAS Y CER40ferreterapegaso@hotmail.com                                                      NOKNE0818REGISTRO YA EXISTE                      
072072180005322248338MXP0000004999999.00NOVELSA S.A DE C.V            149_NOVELSA S.A DE C.V        4021 emilia                                                                        NOKNE0818REGISTRO YA EXISTE                      
132132180000062958085MXP0000004999999.00BUBBLE CLEAN S.A DE C.V       158_BUBBLE CLEAN S.A DE C.V   40ferreterapegaso@hotmail.com                                                      NOKNE0818REGISTRO YA EXISTE                      
021021180040282287322MXP0000004999999.00C Y G COMERCIAL S.A DE C.V    159_C Y G COMERCIAL S.A DE C.V40ferreterapegaso@hotmail.com                                                      NOKNE0818REGISTRO YA EXISTE                      
002002180045875152914MXP0000004999999.00CARDENAS SANCHEZ GUILLERMO DAN161_CARDENAS SANCHEZ GUILLERMO40ferreterapegaso@hotmail.com                                                      NOKNE0818REGISTRO YA EXISTE                      
044044180001035241324MXP0000004999999.00CASA IKEDA S.A DE CV          162_CASA IKEDA S.A DE CV      40ferreterapegaso@hotmail.com                                                      NOKNE0818REGISTRO YA EXISTE                      
002002180650212024061MXP0000004999999.00CIA SHERWIN WILLIAMS S.A DE C.166_CIA SHERWIN WILLIAMS S.A D40ferreterapegaso@hotmail.com                                                      NOKNE0818REGISTRO YA EXISTE                      
002002180650212024061MXP0000004999999.00CIA SHERWIN WILLIAMS S.A DE C.168_CIA SHERWIN WILLIAMS S.A D40ferreterapegaso@hotmail.com                                                      NOKNE0818REGISTRO YA EXISTE                      
002002180063369211107MXP0000004999999.00TORNILLOS BAHERS, S.A. DE C.V.171_TORNILLOS BAHERS, S.A. DE 40ferreterapegaso@hotmail.com                                                      NOKNE0818REGISTRO YA EXISTE                      
021021180040217404361MXP0000004999999.00FERRETERIA DE CORREGIDORA S.A.182_FERRETERIA DE CORREGIDORA 40ferreterapegaso@hotmail.com                                                      NOKNE0818REGISTRO YA EXISTE                      
002002180021873217464MXP0000004999999.00TUBOS MONTERREY S.A DE CV     184_TUBOS MONTERREY S.A DE CV 40ferreterapegaso@hotmail.com                                                      NOKNE0818REGISTRO YA EXISTE                      
014014320655052946835MXP0000004999999.00REPRESENTACIONES VARIAS DE IND188_REPRESENTACIONES VARIAS DE40ferreterapegaso@hotmail.com                                                      NOKNE0818REGISTRO YA EXISTE                      
002002180012500420821MXP0000004999999.00SALCEDO Y MARTIN S. DE R.L. DE189_SALCEDO Y MARTIN S. DE R.L40ferreterapegaso@hotmail.com                                                      NOKNE0818REGISTRO YA EXISTE                      
002002680437200147864MXP0000004999999.00STAINLESS MACRO TRADE S.A DE C192_STAINLESS MACRO TRADE S.A 40ferreterapegaso@hotmail.com                                                      NOKNE0818REGISTRO YA EXISTE                      
002002180063741422491MXP0000004999999.00TAMAYO ERGUERA ROSAURA VIOLETA194_TAMAYO ERGUERA ROSAURA VIO40ferreterapegaso@hotmail.com                                                      NOKNE0818REGISTRO YA EXISTE                      
002002180052367826990MXP0000004999999.00OPERADORA DE INDUSTRIAL DE HER198_OPERADORA DE INDUSTRIAL DE40ferreterapegaso@hotmail.com                                                      NOKNE0818REGISTRO YA EXISTE                      
012012180026918972258MXP0000004999999.00MATERIALES ELECTRICO NECAXA, S199_MATERIALES ELECTRICO NECAX40ferreterapegaso@hotmail.com                                                      NOKNE0080CTA CLABE BANCOMER                      
002002180098684270597MXP0000004999999.00ORTEGA RODRIGUEZ ELEAZAR      201_ORTEGA RODRIGUEZ ELEAZAR  40ferreterapegaso@hotmail.com                                                      NOKNE0818REGISTRO YA EXISTE                      
021021680040190997042MXP0000004999999.00TRAVERS TOOL S. DE R.L. DE C.V211_TRAVERS TOOL S. DE R.L. DE40ferreterapegaso@hotmail.com                                                      NOKNE0818REGISTRO YA EXISTE                      
002002180018306838404MXP0000004999999.00OFIDISA S.A. DE C.V.          205_OFIDISA S.A. DE C.V.      40ferreterapegaso@hotmail.com                                                      NOKNE0818REGISTRO YA EXISTE                      
021021680040006246845MXP0000004999999.00PRODUCTOS PENNSYLVANIA S.A DE 206_PRODUCTOS PENNSYLVANIA S.A40ferreterapegaso@hotmail.com                                                      NOKNE0818REGISTRO YA EXISTE                      
002002180029824654706MXP0000004999999.00PERFILES SANTA LUCIA S.A DE C.207_PERFILES SANTA LUCIA S.A D40ferreterapegaso@hotmail.com                                                      NOKNE0818REGISTRO YA EXISTE                      
002002180018306972645MXP0000004999999.00PROVEEDORA INDUSTRIAL DE TLALN209_PROVEEDORA INDUSTRIAL DE T40ferreterapegaso@hotmail.com                                                      NOKNE0818REGISTRO YA EXISTE                      
002002180045871297666MXP0000004999999.00SUPER PAPELERA S.A DE C.V     216_SUPER PAPELERA S.A DE C.V 40ferreterapegaso@hotmail.com                                                      NOKNE0818REGISTRO YA EXISTE                      
002002180050560207075MXP0000004999999.00HERNANDEZ BENHUMEA ELVIRA ARAC219_HERNANDEZ BENHUMEA ELVIRA 40pijasytornillos@live.com                                                         NOKNE0818REGISTRO YA EXISTE                      
021021180040036718720MXP0000004999999.00EUROPLAST S.A DE C.V          221_EUROPLAST S.A DE C.V      40ferreterapegaso@hotmail.com                                                      NOKNE0818REGISTRO YA EXISTE                      
002002180094664652566MXP0000004999999.00REPRESENTACIONES INDUSTRIALES 224_REPRESENTACIONES INDUSTRIA40ferreterapegaso@hotmail.com                                                      NOKNE0818REGISTRO YA EXISTE                      
021021180040469694327MXP0000004999999.00MARTINEZ ROCHA GUAIRA COPITZI 227_MARTINEZ ROCHA GUAIRA COPI40ARENAS$_JOLUMADI@HOTMAIL.COM                                                     NOKNE0818REGISTRO YA EXISTE                      
002002180069800415204MXP0000004999999.00MICRO HERRAMIENTAS , S.A. DE C232_MICRO HERRAMIENTAS , S.A. 40hpvallejo@yahoo.com.mx                                                           NOKNE0818REGISTRO YA EXISTE                      
002002180019621504263MXP0000004999999.00TECNICA EN FIJACION Y SOPORTER235_TECNICA EN FIJACION Y SOPO40atnclientes@tecnicaenfijacion.com.mx                                             NOKNE0818REGISTRO YA EXISTE                      
002002180019409521976MXP0000004999999.00REFRIGERACION ANAHUAC S.A DE C238_REFRIGERACION ANAHUAC S.A 40ferreterapegaso@hotmail.com                                                      NOKNE0818REGISTRO YA EXISTE                      
002002180016577556601MXP0000004999999.00TRIPLAY TABLEROS DE ECATEPEC, 241_TRIPLAY TABLEROS DE ECATEP40abymarcus@hotmail.com                                                            NOKNE0818REGISTRO YA EXISTE                      
002002180022442856624MXP0000004999999.00FERRE ASOCIADOS RDG S.A. DE C.245_FERRE ASOCIADOS RDG S.A. D40rosa@ferreasociadosrdg.com                                                       NOKNE0818REGISTRO YA EXISTE                      
002002180}02322783704MXP0000004999999.00POLIESTER Y ABRASIVOS S.A DE C246_POLIESTER Y ABRASIVOS S.A 40ferreterapegaso@hotmail.com                                                      NOKNE0047FORMATO INVALIDO                        
002002180029824708306MXP0000004999999.00DISTRIBUIDORA DIMAS S.A DE C.V247_DISTRIBUIDORA DIMAS S.A DE40ferreterapegaso@hotmail.com                                                      NOKNE0818REGISTRO YA EXISTE                      
014014180655010580716MXP0000004999999.00ASEO INDUSTRIAL MEXICANA S.A D248_ASEO INDUSTRIAL MEXICANA S40ferreterapegaso@hotmail.com                                                      NOKNE0818REGISTRO YA EXISTE                      
002002180050561827904MXP0000004999999.00EUTECTIC MEXICO S.A. DE C.V.  249_EUTECTIC MEXICO S.A. DE C.40anchavez@eutectic.com.mx                                                         NOKNE0818REGISTRO YA EXISTE                      
127127180001090301731MXP0000004999999.00IMPULSORA SAHUAYO S.A DE C.V  252_IMPULSORA SAHUAYO S.A DE C40ferreterapegaso@hotmail.com                                                      NOKNE0818REGISTRO YA EXISTE                      
002002180018358127545MXP0000004999999.00SUMINISTROS DE EMPAQUETADURAS 253_SUMINISTROS DE EMPAQUETADU40ferreterapegaso@hotmail.com                                                      NOKNE0818REGISTRO YA EXISTE                      
002002180020843464578MXP0000004999999.00CASA GALVAN TODO PARA VIDRIO S264_CASA GALVAN TODO PARA VIDR40ferreterapegaso@hotmail.com                                                      NOKNE0818REGISTRO YA EXISTE                      
002002180700419344151MXP0000004999999.00OLIVARES LIRA JOSE ANTONIO    266_OLIVARES LIRA JOSE ANTONIO40ferreterapegaso@hotmail.com                                                      NOKNE0818REGISTRO YA EXISTE                      
002002180434500094408MXP0000004999999.00UNIMAT DE MEXICO S.A DE C.V   268_UNIMAT DE MEXICO S.A DE C.40ferreterapegaso@hotmail.com                                                      NOKNE0818REGISTRO YA EXISTE                      
002002180062781802616MXP0000004999999.00INGENIERIA Y PRODUCTOS DE ACER270_INGENIERIA Y PRODUCTOS DE 40ferreterapegaso@hotmail.com                                                      NOKNE0818REGISTRO YA EXISTE                      
002002180087005438987MXP0000004999999.00BALEROMEX S.A. DE C.V.        272_BALEROMEX S.A. DE C.V.    40mendoza@baleromex.com                                                            NOKNE0818REGISTRO YA EXISTE                      
002002180050257210142MXP0000004999999.00CONTENUR S.A DE C.V           273_CONTENUR S.A DE C.V       40ferreterapegaso@hotmail.com                                                      NOKNE0818REGISTRO YA EXISTE                      
002002180053976364392MXP0000004999999.00GERALSA TECNOLOGIA EN EQUIPOS 274_GERALSA TECNOLOGIA EN EQUI40ferreterapegaso@hotmail.com                                                      NOKNE0818REGISTRO YA EXISTE                      
002002180052366471391MXP0000004999999.00PROVEEDORA INDUSTRIAL E INGENI277_PROVEEDORA INDUSTRIAL E IN40ferreterapegaso@hotmail.com                                                      NOKNE0818REGISTRO YA EXISTE                      
021021180040142195622MXP0000004999999.00SERVIFEST, S.A. DE C.V.       278_SERVIFEST, S.A. DE C.V.   40servifest1@prodigy.net.mx                                                        NOKNE0818REGISTRO YA EXISTE                      
002002180031777375949MXP0000004999999.00DISTRIBUCION INTERCERAMIC S.A.283_DISTRIBUCION INTERCERAMIC 40vtassatelite5@interceramic.com                                                   NOKNE0047ASUNTO NO VALIDO                        
002002180034777375949MXP0000004999999.00DISTRIBUCION INTERCERAMIC SA D284_DISTRIBUCION INTERCERAMIC 40echegaray1@interceramic.com                                                      NOKNE0818REGISTRO YA EXISTE                      
002002180026042355563MXP0000004999999.00DISTRIBUIDORA DE PLAFONES Y PA285_DISTRIBUIDORA DE PLAFONES 40ventas@dpp.mx                                                                    NOKNE0818REGISTRO YA EXISTE                      
002002320700032450965MXP0000004999999.00DINAMICA EN SOLUCIONES INDUSTR602_DINAMICA EN SOLUCIONES IND40ferreterapegaso@hotmail.com                                                      NOKNE0818REGISTRO YA EXISTE                      
021021180040227711332MXP0000004999999.00CARTONERA CAMSA S.A DE C.V    288_CARTONERA CAMSA S.A DE C.V40ferreterapegaso@hotmail.com                                                      NOKNE0818REGISTRO YA EXISTE                      
014014180655040634250MXP0000004999999.00EL NERVION, S.A. DE C.V.      293_EL NERVION, S.A. DE C.V.  40rosario.ventas@nervion.com.mx                                                    NOKNE0818REGISTRO YA EXISTE                      
002002180700611030483MXP0000004999999.00CENTRAL DE ASPIRADORAS S.A DE 296_CENTRAL DE ASPIRADORAS S.A40ferreterapegaso@hotmail.com                                                      NOKNE0818REGISTRO YA EXISTE                      
002002180054185514398MXP0000004999999.00CENTRAL DE SUMINISTROS DEL SUR298_CENTRAL DE SUMINISTROS DEL40ferreterapegaso@hotmail.com                                                      NOKNE0818REGISTRO YA EXISTE                      
002002180471900495466MXP0000004999999.00HERRAMIENTAS IXL S.A DE C.V   499_HERRAMIENTAS IXL S.A DE C.40ferreterapegaso@hotmail.com                                                      NOKNE0818REGISTRO YA EXISTE                      
002002180037552323773MXP0000004999999.00ELECTRO FUSIBLES DEL CENTRO , 301_ELECTRO FUSIBLES DEL CENTR40cecilia@electrofusiblesdelcentro.com                                             NOKNE0818REGISTRO YA EXISTE                      
002002180048261276061MXP0000004999999.00COBRE PARA SIEMPRE S.A DE C.V 308_COBRE PARA SIEMPRE S.A DE 40ferreterapegaso@hotmail.com                                                      NOKNE0818REGISTRO YA EXISTE                      
002002180427100421572MXP0000004999999.00CIFRA SERVICIOS INDUSTRIALES, 500_CIFRA SERVICIOS INDUSTRIAL40administracion2@cifraservicios.com.mx                                            NOKNE0818REGISTRO YA EXISTE                      
014014180920005421586MXP0000004999999.00COMERCIAL Y ELECTRICA INDUSTRI315_COMERCIAL Y ELECTRICA INDU40ferreterapegaso@hotmail.com                                                      NOKNE0818REGISTRO YA EXISTE                      
014014180655000125783MXP0000004999999.00COMERCIAL DE PINTURAS DALCE S.316_COMERCIAL DE PINTURAS DALC40ferreterapegaso@hotmail.com                                                      NOKNE0818REGISTRO YA EXISTE                      
002002180026918896059MXP0000004999999.00EUROELECTRICA S.A. DE C.V.    320_EUROELECTRICA S.A. DE C.V.40euroventas23@euroelectrica.com.mx                                                NOKNE0818REGISTRO YA EXISTE                      
002002180700886386603MXP0000004999999.00COMERCIALIZADORA DE INSUMOS MI323_COMERCIALIZADORA DE INSUMO40ferreterapegaso@hotmail.com                                                      NOKNE0818REGISTRO YA EXISTE                      
002002180057484457836MXP0000004999999.00ESPUMA DE MEXICO S.A DE C.V.  561_ESPUMA DE MEXICO S.A DE C.40ferreterapegaso@hotmail.com                                                      NOKNE0818REGISTRO YA EXISTE                      
002002180650390427593MXP0000004999999.00CURACRETO S.A DE C.V          334_CURACRETO S.A DE C.V      40ferreterapegaso@hotmail.com                                                      NOKNE0818REGISTRO YA EXISTE                      
072072180002583405654MXP0000004999999.00GOMEZ RENDON CARLOS           340_GOMEZ RENDON CARLOS       40ferreterapegaso@hotmail.com                                                      NOKNE0818REGISTRO YA EXISTE                      
072072180000161463010MXP0000004999999.00FERRELLYR .S.A. DE C.V.       341_FERRELLYR .S.A. DE C.V.   40ferrellyr.72@hotmail.com                                                         NOKNE0818REGISTRO YA EXISTE                      
014014180655013526162MXP0000004999999.00FERRESHOP S.A. DE C.V.        342_FERRESHOP S.A. DE C.V.    40ferreterapegaso@hotmail.com                                                      NOKNE0818REGISTRO YA EXISTE                      
002002180434500071117MXP0000004999999.00FERRETERA FUENTES DE VIGAS S.A344_FERRETERA FUENTES DE VIGAS40ferreterapegaso@hotmail.com                                                      NOKNE0818REGISTRO YA EXISTE                      
014014180655011544586MXP0000004999999.00GRUPO AZOR MEXICO S.A DE C.V  345_GRUPO AZOR MEXICO S.A DE C40ferreterapegaso@hotmail.com                                                      NOKNE0818REGISTRO YA EXISTE                      
002002180033344597986MXP0000004999999.00GRUPO CORIAT S.C DE R.L DE C.V346_GRUPO CORIAT S.C DE R.L DE40ferreterapegaso@hotmail.com                                                      NOKNE0818REGISTRO YA EXISTE                      
002002180024329854857MXP0000004999999.00FERRETERIA BALDOR S.A. DE C.V.347_FERRETERIA BALDOR S.A. DE 40gherrera@fbaldor.com                                                             NOKNE0818REGISTRO YA EXISTE                      
002002580008777732134MXP0000004999999.00GRUPO CW S.A DE C.V           348_GRUPO CW S.A DE C.V       40ferreterapegaso@hotmail.com                                                      NOKNE0818REGISTRO YA EXISTE                      
014014180655044221957MXP0000004999999.00GRUPO PARISINA S.A DE C.V (20 351_GRUPO PARISINA S.A DE C.V 40ferreterapegaso@hotmail.com                                                      NOKNE0818REGISTRO YA EXISTE                      
021021430040553428777MXP0000004999999.00LOARCA PRIMERO ROSA SUSANA    504_LOARCA PRIMERO ROSA SUSANA40loarcasusy@hotmail.com                                                           NOKNE0818REGISTRO YA EXISTE                      
002002180451800258833MXP0000004999999.00MARTINEZ RODRIGUEZ EDUARDO    563_MARTINEZ RODRIGUEZ EDUARDO40ferreterapegaso@hotmail.com                                                      NOKNE0818REGISTRO YA EXISTE                      
002002180435000115145MXP0000004999999.00FIJATEC, S.A. DE C.V.         353_FIJATEC, S.A. DE C.V.     40fijatec@fijatec.com                                                              NOKNE0818REGISTRO YA EXISTE                      
002002180050251563840MXP0000004999999.00FINKL DE MEXICO,S. DE R.L. DE 355_FINKL DE MEXICO,S. DE R.L.40dmartinez@finkl-mex.com                                                          NOKNE0818REGISTRO YA EXISTE                      
002002180415200006647MXP0000004999999.00HERMANOS CASTRO ACERO PARA LA 359_HERMANOS CASTRO ACERO PARA40hcaalternatico@gmail.com                                                         NOKNE0818REGISTRO YA EXISTE                      
014014180655036298260MXP0000004999999.00HERRAMIENTAS 7-24, S.A. DE C.V361_HERRAMIENTAS 7-24, S.A. DE40telemarketing@mikels.com.mx                                                      NOKNE0818REGISTRO YA EXISTE                      
014014180655034327117MXP0000004999999.00ABASTO BASICO S.A DE C.V.     369_ABASTO BASICO S.A DE C.V. 40admon.tla@abastobasico.com                                                       NOKNE0818REGISTRO YA EXISTE                      
002002180026979103477MXP0000004999999.00ACONDICIONAMIENTO DEL AGUA AQU376_ACONDICIONAMIENTO DEL AGUA40ferreterapegaso@hotmail.com                                                      NOKNE0818REGISTRO YA EXISTE                      
002002180013601875073MXP0000004999999.00ALMOTOR S.A DE C.V            381_ALMOTOR S.A DE C.V        40ferreterapegaso@hotmail.com                                                      NOKNE0818REGISTRO YA EXISTE                      
021021180040386984039MXP0000004999999.00INDUSTRIAS JOHN CRANE DE MEXIC385_INDUSTRIAS JOHN CRANE DE M40ferreterapegaso@hotmail.com                                                      NOKNE0818REGISTRO YA EXISTE                      
036036180500181919093MXP0000004999999.00INGENIERIA DE PLASTICOS UNIVER390_INGENIERIA DE PLASTICOS UN40ferreterapegaso@hotmail.com                                                      NOKNE0818REGISTRO YA EXISTE                      
012012180001619729870MXP0000004999999.00LAMINADOS PLASTICOS SAYCO S.A.396_LAMINADOS PLASTICOS SAYCO 40gaby_sayco@hotmail.com                                                           NOKNE0080CTA CLABE BANCOMER                      
002002180700550359791MXP0000004999999.00NAKOMSA KOMFORT AMBIENTAL S.A 399_NAKOMSA KOMFORT AMBIENTAL 40ferreterapegaso@hotmail.com                                                      NOKNE0818REGISTRO YA EXISTE                      
012012547854785478544MXP0000004999999.00LIVERPOOL SUC SATELITE        400_LIVERPOOL SUC SATELITE    40ferreterapegaso@hotmail.com                                                      NOKNE0080CTA CLABE BANCOMER                      
002002180700550359791MXP0000004999999.00NAKOMSA KOMFORT AMBIENTAL S.A 401_NAKOMSA KOMFORT AMBIENTAL 40ferreterapegaso@hotmail.com                                                      NOKNE0818REGISTRO YA EXISTE                      
002002180052367838739MXP0000004999999.00OPERADORA COMPAQIA MEXICANA DE409_OPERADORA COMPAQIA MEXICAN40ferreterapegaso@hotmail.com                                                      NOKNE0818REGISTRO YA EXISTE                      
002002180476400038865MXP0000004999999.00PANELES Y PLAFONES MG S.A DE C413_PANELES Y PLAFONES MG S.A 40ferreterapegaso@hotmail.com                                                      NOKNE0818REGISTRO YA EXISTE                      
012012180004468102331MXP0000004999999.00DISTELUB                      805_DISTELUB                  40CGABRIELA@DISTELUB.COM                                                           NOKNE0080CTA CLABE BANCOMER                      
002002180029824430001MXP0000004999999.00PERFILES PACIFICO S.A DE C.V  421_PERFILES PACIFICO S.A DE C40ferreterapegaso@hotmail.com                                                      NOKNE0818REGISTRO YA EXISTE                      
014014180655034291780MXP0000004999999.00PINTURAS ACUARIO DE MEXICO S.A424_PINTURAS ACUARIO DE MEXICO40ferreterapegaso@hotmail.com                                                      NOKNE0818REGISTRO YA EXISTE                      
002002180037178105883MXP0000004999999.00PINTURAS JACARANDAS S.A DE C.V426_PINTURAS JACARANDAS S.A DE40comexptevigas@live.com.mx                                                        NOKNE0818REGISTRO YA EXISTE                      
002002180019409095266MXP0000004999999.00METAL DIAZ, S.A. DE C.V.      430_METAL DIAZ, S.A. DE C.V.  40tirso.torres@metaldiaz.com.mx                                                    NOKNE0818REGISTRO YA EXISTE                      
002002180045849289350MXP0000004999999.00MOCENCO S.A.                  432_MOCENCO S.A.              40ventas@monenco.com                                                               NOKNE0818REGISTRO YA EXISTE                      
002002180024636120040MXP0000004999999.00MOTO AZCAPOTZALCO S.A. DE C.V.434_MOTO AZCAPOTZALCO S.A. DE 40patyazcapotzalco@prodigy.net.mx                                                  NOKNE0047ASUNTO NO VALIDO                        
002002180025906477164MXP0000004999999.00POLIPASTOS DE CHIHUAHUA S.A DE442_POLIPASTOS DE CHIHUAHUA S.40ferreterapegaso@hotmail.com                                                      NOKNE0818REGISTRO YA EXISTE                      
002002180087005343250MXP0000004999999.00AUTOZONE DE MEXICO S. DE RL. D443_AUTOZONE DE MEXICO S. DE R40ferreterapegaso@hotmail.com                                                      NOKNE0818REGISTRO YA EXISTE                      
002002180446300545569MXP0000004999999.00POLIVOM RUEDAS Y RODAJAS S.A D445_POLIVOM RUEDAS Y RODAJAS S40ferreterapegaso@hotmail.com                                                      NOKNE0818REGISTRO YA EXISTE                      
021021180040018181456MXP0000004999999.00PRODYMA S. A DE C.V           455_PRODYMA S. A DE C.V       40ferreterapegaso@hotmail.com                                                      NOKNE0818REGISTRO YA EXISTE                      
002002180021809470466MXP0000004999999.00RAYHSA VALLEJO S.A. DE C.V.   458_RAYHSA VALLEJO S.A. DE C.V40ferreterapegaso@hotmail.com                                                      NOKNE0818REGISTRO YA EXISTE                      
002002910023507915695MXP0000004999999.00PERFILES DE ACERO JASSO S.A. D1343_PERFILES DE ACERO JASSO S40ventasplaya@acerosjasso.com                                                      NOKNE0818REGISTRO YA EXISTE                      
014014180920020318302MXP0000004999999.00SEGURIDAD TECNICA MAT S.A. DE 476_SEGURIDAD TECNICA MAT S.A.40ferreterapegaso@hotmail.com                                                      NOKNE0818REGISTRO YA EXISTE                      
002002180700917810080MXP0000004999999.00SOMO REYES S.A DE C.V         484_SOMO REYES S.A DE C.V     40ferreterapegaso@hotmail.com                                                      NOKNE0818REGISTRO YA EXISTE                      
002002180037048019119MXP0000004999999.00TIENDAS CUPRUM S.A DE C.V     494_TIENDAS CUPRUM S.A DE C.V 40ferreterapegaso@hotmail.com                                                      NOKNE0818REGISTRO YA EXISTE                      
002002180037048019119MXP0000004999999.00TIENDAS CUPRUM S.A DE C.V (BEL495_TIENDAS CUPRUM S.A DE C.V 40ventas 2 . tlalnepantla@cuprum .com                                              NOKNE0818REGISTRO YA EXISTE                      
002002180018358048679MXP0000004999999.00TOOLS CENTER TLAPALERO S.A DE 496_TOOLS CENTER TLAPALERO S.A40ferreterapegaso@hotmail.com                                                      NOKNE0818REGISTRO YA EXISTE                      
014014180655048307181MXP0000004999999.00TORNILLOS MARQUEZ S. DE R.L DE497_TORNILLOS MARQUEZ S. DE R.40ferreterapegaso@hotmail.com                                                      NOKNE0818REGISTRO YA EXISTE                      
002002180700828826590MXP0000004999999.00DIAZ LUNA SERGIO RICARDO      625_DIAZ LUNA SERGIO RICARDO  40ferreterapegaso@hotmail.com                                                      NOKNE0818REGISTRO YA EXISTE                      
014014180605499097618MXP0000004999999.00LAGUNA MELENDEZ MARIA GUADALUP509_LAGUNA MELENDEZ MARIA GUAD40ferreterapegaso@hotmail.com                                                      NOKNE0818REGISTRO YA EXISTE                      
002002180057378758162MXP0000004999999.00REPRESENTACIONES Y DISTRIBUCIO510_REPRESENTACIONES Y DISTRIB40ferreterapegaso@hotmail.com                                                      NOKNE0818REGISTRO YA EXISTE                      
002002180434600855288MXP0000004999999.00TINOCO MIRANDA MIGUEL         511_TINOCO MIRANDA MIGUEL     40ferreterapegaso@hotmail.com                                                      NOKNE0818REGISTRO YA EXISTE                      
012012180001922582429MXP0000004999999.00JIMENEZ MARMOLEJO JOSE DE JESU512_JIMENEZ MARMOLEJO JOSE DE 40ferreterapegaso@hotmail.com                                                      NOKNE0080CTA CLABE BANCOMER                      
072072320006889466946MXP0000004999999.00INDUSTRIAS PRESTO S.A. DE C.V.518_INDUSTRIAS PRESTO S.A. DE 40prestocenterdf@ipresto.net                                                       NOKNE0818REGISTRO YA EXISTE                      
002002180056385393757MXP0000004999999.00CENTRO DE DISTRIBUCION ORIENTE520_CENTRO DE DISTRIBUCION ORI40ferreterapegaso@hotmail.com                                                      NOKNE0818REGISTRO YA EXISTE                      
002002320025755476406MXP0000004999999.00IMPORTACIONES CORTES, SA DE CV525_IMPORTACIONES CORTES, SA D40ferreterapegaso@hotmail.com                                                      NOKNE0818REGISTRO YA EXISTE                      
002002180081900006656MXP0000004999999.00POLIESTIRENOS DE CUAUTITLAN, S526_POLIESTIRENOS DE CUAUTITLA40ferreterapegaso@hotmail.com                                                      NOKNE0818REGISTRO YA EXISTE                      
002002180063369092342MXP0000004999999.00CONEXIONES Y HERRAMIENTAS ELEC530_CONEXIONES Y HERRAMIENTAS 40ferreterapegaso@hotmail.com                                                      NOKNE0818REGISTRO YA EXISTE                      
014014180605018462433MXP0000004999999.00VAZQUEZ PINEDA REBECA         533_VAZQUEZ PINEDA REBECA     40articulosdecorcho@prodigy.net.mx                                                 NOKNE0818REGISTRO YA EXISTE                      
002002580008777305574MXP0000004999999.00HOME DEPOT MEXICO S DE R.L DE 540_HOME DEPOT MEXICO S DE R.L40ferreterapegaso@hotmail.com                                                      NOKNE0818REGISTRO YA EXISTE                      
002002320700544634622MXP0000004999999.00GUVE CORTE Y SOLDADURAS S.A. D541_GUVE CORTE Y SOLDADURAS S.40ferreterapegaso@hotmail.com                                                      NOKNE0818REGISTRO YA EXISTE                      
072072180005250789448MXP0000004999999.00PRODUCTOS METALICOS MAQUILADOS535_PRODUCTOS METALICOS MAQUIL40dirventas@leflam.com                                                             NOKNE0818REGISTRO YA EXISTE                      
002002580086100396279MXP0000004999999.00SERVICIOS ESPECIALIZADOS DE MO544_SERVICIOS ESPECIALIZADOS D40ferreterapegaso@hotmail.com                                                      NOKNE0818REGISTRO YA EXISTE                      
002002180037045745402MXP0000004999999.00REJIMEX INTERNACIONAL SA DE CV551_REJIMEX INTERNACIONAL SA D40ferreterapegaso@hotmail.com                                                      NOKNE0818REGISTRO YA EXISTE                      
002002180700515141986MXP0000004999999.00INDUSTRIAL SURTIDORA MEXICO S.574_INDUSTRIAL SURTIDORA MEXIC40ferreterapegaso@hotmail.com                                                      NOKNE0818REGISTRO YA EXISTE                      
002002813001888187411MXP0000004999999.00BOXHER SERVICIOS S.A. DE C.V. 588_BOXHER SERVICIOS S.A. DE C40pablo@boxher.xom.mx                                                              NOKNE0047ASUNTO NO VALIDO                        
002002580713700066654MXP0000004999999.00PROVEEDORA TERMICA DEL NORTE S586_PROVEEDORA TERMICA DEL NOR40ferreterapegaso@hotmail.com                                                      NOKNE0818REGISTRO YA EXISTE                      
002002180719500470831MXP0000004999999.00TERCERO VERGARA ANGEL         589_TERCERO VERGARA ANGEL     40ypico@codigoambar.com   1entas@codigoambar.com                                   NOKNE0818REGISTRO YA EXISTE                      
002002180497800314320MXP0000004999999.00MENDOZA CASTRO SIRSE ANEL     590_MENDOZA CASTRO SIRSE ANEL 40ferreterapegaso@hotmail.com                                                      NOKNE0818REGISTRO YA EXISTE                      
002002580461800008796MXP0000004999999.00BDI DISTRIBUCIONES DE MEXICO S591_BDI DISTRIBUCIONES DE MEXI40adriana.ruiz@bdi-mexico.com /patricia.aguirre@bdi-mexico.com                     NOKNE0818REGISTRO YA EXISTE                      
002002180700810887628MXP0000004999999.00CASTILLO MORALES JORGE ISAAC  584_CASTILLO MORALES JORGE ISA40ferreterapegaso@hotmail.com                                                      NOKNE0818REGISTRO YA EXISTE                      
002002180700388866045MXP0000004999999.00PALACIO SALGADO GUILLERMO     593_PALACIO SALGADO GUILLERMO 40ferreterapegaso@hotmail.com                                                      NOKNE0818REGISTRO YA EXISTE                      
002002180700451370565MXP0000004999999.00MATERIALES LINDAVISTA S.A. DE 594_MATERIALES LINDAVISTA S.A.40construramalindavista_montevideo@hotmail.com                                     NOKNE0818REGISTRO YA EXISTE                      
002002580008777732134MXP0000004999999.00GRUPO CW S.A. DE C.V.         595_GRUPO CW S.A. DE C.V.     40ntello@grupocw.com                                                               NOKNE0818REGISTRO YA EXISTE                      
002002180026157565581MXP0000004999999.00WEILER DE MEXICO S. DE R.L. DE596_WEILER DE MEXICO S. DE R.L40ferreterapegaso@hotmail.com                                                      NOKNE0818REGISTRO YA EXISTE                      
002002180476400374464MXP0000004999999.00PLASTICIDAD EN CANALETA HM S.A598_PLASTICIDAD EN CANALETA HM40erika.canaletashm@hotmail.com                                                    NOKNE0818REGISTRO YA EXISTE                      
014014210655006670649MXP0000004999999.00PINTURAS CORREGIDORA S.A DE C.600_PINTURAS CORREGIDORA S.A D40ferreterapegaso@hotmail.com                                                      NOKNE0818REGISTRO YA EXISTE                      
002002180040355508669MXP0000004999999.00TERWOGT ZEBADUA ROBERTO       604_TERWOGT ZEBADUA ROBERTO   40ferreterapegaso@hotmail.com                                                      NOKNE0818REGISTRO YA EXISTE                      
002002180032163840666MXP0000004999999.00FRAGO CORPORATIVO S.A. DE C.V.601_FRAGO CORPORATIVO S.A. DE 40ferreterapegaso@hotmail.com                                                      NOKNE0818REGISTRO YA EXISTE                      
002002180063369211107MXP0000004999999.00TORNILLOS BAHERS S.A. DE C.V (736_TORNILLOS BAHERS S.A. DE C40ferreterapegaso@hotmail.com                                                      NOKNE0818REGISTRO YA EXISTE                      
072072180006147405384MXP0000004999999.00DELTA TIGER SA DE CV          608_DELTA TIGER SA DE CV      40ventas1@tiger.com.mx                                                             NOKNE0818REGISTRO YA EXISTE                      
002002580039216045047MXP0000004999999.00GLASSFIBER DEL NORTE, S.A. DE 609_GLASSFIBER DEL NORTE, S.A.40ferreterapegaso@hotmail.com                                                      NOKNE0818REGISTRO YA EXISTE                      
002002180074600020651MXP0000004999999.00ALAMBRADOS Y CIMBRAS MIXCOAC S611_ALAMBRADOS Y CIMBRAS MIXCO40alamcribasmixcoac@hotmail.com                                                    NOKNE0818REGISTRO YA EXISTE                      
002002180053166915629MXP0000004999999.00CALIXTO FLORES RAUL EDUARDO   613_CALIXTO FLORES RAUL EDUARD40rivi_lapaz@hotmail.com                                                           NOKNE0818REGISTRO YA EXISTE                      
002002320056756131434MXP0000004999999.00MOUSER ELECTRONICS S. DE R.L. 614_MOUSER ELECTRONICS S. DE R40ferreterapegaso@hotmail.com                                                      NOKNE0818REGISTRO YA EXISTE                      
044044180001027668973MXP0000004999999.00NAKOMSA COMFORT AMBIENTAL S.A.615_NAKOMSA COMFORT AMBIENTAL 40ventasmx2@nakomsa.com                                                            NOKNE0818REGISTRO YA EXISTE                      
002002180701037993666MXP0000004999999.00EDUARDO APARICIO MARCIAL      616_EDUARDO APARICIO MARCIAL  40k.quintos@centrodeservicioscp.com                                                NOKNE0818REGISTRO YA EXISTE                      
002002180028741624292MXP0000004999999.00CLEVIS, S.A. DE C.V.          620_CLEVIS, S.A. DE C.V.      40dulce@clevis.com.mx                                                              NOKNE0818REGISTRO YA EXISTE                      
072072180002486290746MXP0000004999999.00SERGIO SANCHEZ SANCHEZ        618_SERGIO SANCHEZ SANCHEZ    40alfred.sanchez258@gmail.com                                                      NOKNE0818REGISTRO YA EXISTE                      
021021180040125939766MXP0000004999999.00COMPAQIA EXTINGUIDORES LATINOS621_COMPAQIA EXTINGUIDORES LAT40ferreterapegaso@hotmail.com                                                      NOKNE0818REGISTRO YA EXISTE                      
002002180700289150960MXP0000004999999.00INDUSTRIAL DE ANDENES S.A. DE 627_INDUSTRIAL DE ANDENES S.A.40ferreterapegaso@hotmail.com                                                      NOKNE0818REGISTRO YA EXISTE                      
044044180001011461225MXP0000004999999.00CZTV VALTNE S.A. DE C.V.      628_CZTV VALTNE S.A. DE C.V.  40ferreterapegaso@hotmail.com                                                      NOKNE0818REGISTRO YA EXISTE                      
002002180700654351938MXP0000004999999.00PONCE GONZALEZ BRENDE BELEN   630_PONCE GONZALEZ BRENDE BELE40ferreterapegaso@hotmail.com                                                      NOKNE0818REGISTRO YA EXISTE                      
002002180020509806454MXP0000004999999.00FLEJES INOXIDABLES S.A. DE C.V631_FLEJES INOXIDABLES S.A. DE40ferreterapegaso@hotmail.com                                                      NOKNE0818REGISTRO YA EXISTE                      
002002180021874828124MXP0000004999999.00THESUS DE MEXICO S.A. DE C.V. 633_THESUS DE MEXICO S.A. DE C40ferreterapegaso@hotmail.com                                                      NOKNE0818REGISTRO YA EXISTE                      
002002180700260039369MXP0000004999999.00COMERICIALIZADORA VIALDARO S.A638_COMERICIALIZADORA VIALDARO40ferreterapegaso@hotmail.com                                                      NOKNE0818REGISTRO YA EXISTE                      
002002580446700576123MXP0000004999999.00SOLDADURAS ZELECTA S.A. DE C.V644_SOLDADURAS ZELECTA S.A. DE40ferreterapegaso@hotmail.com                                                      NOKNE0818REGISTRO YA EXISTE                      
002002580062100143718MXP0000004999999.00HERRAMIENTAS MECANICA UNIVERSA645_HERRAMIENTAS MECANICA UNIV40ferreterapegaso@hotmail.com                                                      NOKNE0818REGISTRO YA EXISTE                      
002002180460301699487MXP0000004999999.00QUINTERO BERNAL JUAN EDUARDO  648_QUINTERO BERNAL JUAN EDUAR40ferreterapegaso@hotmail.com                                                      NOKNE0818REGISTRO YA EXISTE                      
072072180008675021584MXP0000004999999.00CHAVEZ GUTIERREZ SUSANA       651_CHAVEZ GUTIERREZ SUSANA   40ferreterapegaso@hotmail.com                                                      NOKNE0818REGISTRO YA EXISTE                      
044044320010027257465MXP0000004999999.00UC AVANZADA SA DE CV          652_UC AVANZADA SA DE CV      40ferreterapegaso@hotmail.com                                                      NOKNE0818REGISTRO YA EXISTE                      
021021180040546599413MXP0000004999999.00PYROSTEM COMERCIALIZADORA S.A 653_PYROSTEM COMERCIALIZADORA 40ferreterapegaso@hotmail.com                                                      NOKNE0818REGISTRO YA EXISTE                      
021021180040022014409MXP0000004999999.00JIMENEZ VILLEGAS ANA LUCIA    655_JIMENEZ VILLEGAS ANA LUCIA40ferreterapegaso@hotmail.com                                                      NOKNE0818REGISTRO YA EXISTE                      
002002580008777305574MXP0000004999999.00HOME DEPOT MEXICO S DE R.L DE 659_HOME DEPOT MEXICO S DE R.L40ferreterapegaso@hotmail.com                                                      NOKNE0818REGISTRO YA EXISTE                      
002002180426600331354MXP0000004999999.00SPN S.A DE C.V.               660_SPN S.A DE C.V.           40ferreterapegaso@hotmail.com                                                      NOKNE0818REGISTRO YA EXISTE                      
002002180434500909577MXP0000004999999.00ENID IZUE FLORES JAIME        680_ENID IZUE FLORES JAIME    40ferreterapegaso@hotmail.com                                                      NOKNE0818REGISTRO YA EXISTE                      
002002180045871007092MXP0000004999999.00INDUSTRIAL AR S.A DE C.V.     662_INDUSTRIAL AR S.A DE C.V. 40ferreterapegaso@hotmail.com                                                      NOKNE0818REGISTRO YA EXISTE                      
002002180057484457836MXP0000004999999.00ESPUMA DE MEXICO S.A  DE C.V. 664_ESPUMA DE MEXICO S.A  DE C40ferreterapegaso@hotmail.com                                                      NOKNE0818REGISTRO YA EXISTE                      
002002180700060020976MXP0000004999999.00HORACIO LEON PEREZ            666_HORACIO LEON PEREZ        40VENTAS@MASHERRAMIENTAS.MX                                                        NOKNE0818REGISTRO YA EXISTE                      
014014180920016160483MXP0000004999999.00LIN MEX GAS, S.A DE C.V       667_LIN MEX GAS, S.A DE C.V   40LINMEXGAS@HOTMAIL.COM                                                            NOKNE0818REGISTRO YA EXISTE                      
021021180040538744001MXP0000004999999.00DEPORTES MARDA S.A. DE C.V.   671_DEPORTES MARDA S.A. DE C.V40ferreterapegaso@hotmail.com                                                      NOKNE0818REGISTRO YA EXISTE                      
002002180034445236378MXP0000004999999.00FLORES ALLENDE GUSTAVO        673_FLORES ALLENDE GUSTAVO    40ferreterapegaso@hotmail.com                                                      NOKNE0818REGISTRO YA EXISTE                      
002002180411800113992MXP0000004999999.00PORCELANOSA MEXICO SA DE CV   674_PORCELANOSA MEXICO SA DE C40ferreterapegaso@hotmail.com                                                      NOKNE0818REGISTRO YA EXISTE                      
021021180040427070831MXP0000004999999.00GRUPO COMERCIAL HERAS S.A. DE 675_GRUPO COMERCIAL HERAS S.A.40ferreterapegaso@hotmail.com                                                      NOKNE0818REGISTRO YA EXISTE                      
002002180091886869473MXP0000004999999.00MENDOZA ELVIRA YOLANDA        677_MENDOZA ELVIRA YOLANDA    40ferreterapegaso@hotmail.com                                                      NOKNE0818REGISTRO YA EXISTE                      
002002180052368551730MXP0000004999999.00EMPORIO ASE AUTOMOTRIZ SA DE C686_EMPORIO ASE AUTOMOTRIZ SA 40ferreterapegaso@hotmail.com                                                      NOKNE0818REGISTRO YA EXISTE                      
002002180024578119291MXP0000004999999.00SERCOM ACTIVE, S.A D C.V.     693_SERCOM ACTIVE, S.A D C.V. 40ferreterapegaso@hotmail.com                                                      NOKNE0818REGISTRO YA EXISTE                      
012012760001037657928MXP0000004999999.00TYP REFRIGERACION SA DE C.V   689_TYP REFRIGERACION SA DE C.40ferreterapegaso@hotmail.com                                                      NOKNE0080CTA CLABE BANCOMER                      
036036180500185829286MXP0000004999999.00RUIZ RAMIREZ JOSE             707_RUIZ RAMIREZ JOSE         40ferreterapegaso@hotmail.com                                                      NOKNE0818REGISTRO YA EXISTE                      
036036180500301037409MXP0000004999999.00SANCHEZ CORONA FRANCISCO      710_SANCHEZ CORONA FRANCISCO  40ferreterapegaso@hotmail.com                                                      NOKNE0818REGISTRO YA EXISTE                      
002002290082781177839MXP0000004999999.00FLUSELL SA DE C.V             691_FLUSELL SA DE C.V         40ferreterapegaso@hotmail.com                                                      NOKNE0818REGISTRO YA EXISTE                      
002002180045851638355MXP0000004999999.00INDUSTRIAS MASS S.A DE C.V.   718_INDUSTRIAS MASS S.A DE C.V40ferreterapegaso@hotmail.com                                                      NOKNE0818REGISTRO YA EXISTE                      
002002180032930659093MXP0000004999999.00COMERCIALIZADORA Y FERRETERIA 719_COMERCIALIZADORA Y FERRETE40ferreterapegaso@hotmail.com                                                      NOKNE0818REGISTRO YA EXISTE                      
002002180024636583507MXP0000004999999.00DISTRIBUIDORA MEXICANA AJ Y CO697_DISTRIBUIDORA MEXICANA AJ 40ferreterapegaso@hotmail.com                                                      NOKNE0818REGISTRO YA EXISTE                      
021021180040037760696MXP0000004999999.00SANAIRE SA DE CV              733_SANAIRE SA DE CV          40ferreterapegaso@hotmail.com                                                      NOKNE0818REGISTRO YA EXISTE                      
002002680045400151262MXP0000004999999.00SHURTAPE MEXICO, S . DE R.L DE737_SHURTAPE MEXICO, S . DE R.40ferreterapegaso@hotmail.com                                                      NOKNE0818REGISTRO YA EXISTE                      
002002180650212024142MXP0000004999999.00CIA SHERWIN WILLIAMS SA DE CV 726_CIA SHERWIN WILLIAMS SA DE40ferreterapegaso@hotmail.com                                                      NOKNE0818REGISTRO YA EXISTE                      
002002180434801867114MXP0000004999999.00PARCHES Y EQUIPOS LLANTEROS S.685_PARCHES Y EQUIPOS LLANTERO40ferreterapegaso@hotmail.com                                                      NOKNE0818REGISTRO YA EXISTE                      
014014180920011191732MXP0000004999999.00JHB DISEQO E INGENIERIA DE SIS735_JHB DISEQO E INGENIERIA DE40ferreterapegaso@hotmail.com                                                      NOKNE0818REGISTRO YA EXISTE                      
002002180700600400503MXP0000004999999.00CORTES SANABRIA MIGUEL ANGEL  739_CORTES SANABRIA MIGUEL ANG40ferreterapegaso@hotmail.com                                                      NOKNE0818REGISTRO YA EXISTE                      
002002150423200144547MXP0000004999999.00KALISCH FIERRO Y ACERO SA DE C700_KALISCH FIERRO Y ACERO SA 40ferreterapegaso@hotmail.com                                                      NOKNE0818REGISTRO YA EXISTE                      
002002180023424874432MXP0000004999999.00AIRE FILTRACION AMBIENTAL DE M741_AIRE FILTRACION AMBIENTAL 40INFO@AFAMEX.COM                                                                  NOKNE0818REGISTRO YA EXISTE                      
012012180001925397488MXP0000004999999.00DISTRIBUIDORA MERCANTIL BAM SA713_DISTRIBUIDORA MERCANTIL BA40ferreterapegaso@hotmail.com                                                      NOKNE0080CTA CLABE BANCOMER                      
002002680476300609975MXP0000004999999.002D2 SA DE CV (JURIQUILLA)     716_2D2 SA DE CV (JURIQUILLA) 40ferreterapegaso@hotmail.com                                                      NOKNE0818REGISTRO YA EXISTE                      
002002180700427368970MXP0000004999999.00CASTELAN RODRIGUEZ JESE ARMAND717_CASTELAN RODRIGUEZ JESE AR40ferreterapegaso@hotmail.com                                                      NOKNE0818REGISTRO YA EXISTE                      
127127180001863656309MXP0000004999999.00MODATELAS SA DE CV            728_MODATELAS SA DE CV        40ferreterapegaso@hotmail.com                                                      NOKNE0818REGISTRO YA EXISTE                      
002002180052567520012MXP0000004999999.00HENTSCH Y ASOCIADOS SA DE CV  745_HENTSCH Y ASOCIADOS SA DE 40ferreterapegaso@hotmail.com                                                      NOKNE0818REGISTRO YA EXISTE                      
002002680700350285772MXP0000004999999.00EQUIPROX S.A. DE C.V.         701_EQUIPROX S.A. DE C.V.     40ferreterapegaso@hotmail.com                                                      NOKNE0818REGISTRO YA EXISTE                      
014014580655034557419MXP0000004999999.00HECTOR GREGORIO PEREZ GONZALEZ780_HECTOR GREGORIO PEREZ GONZ40MAQUINARIADELNORTESA@HOTMAIL.COM                                                 NOKNE0818REGISTRO YA EXISTE                      
002002180700654351938MXP0000004999999.00ADOLFO PONCE OSORIO           783_ADOLFO PONCE OSORIO       40CEPILLOSPONCE9@GMAIL.COM                                                         NOKNE0818REGISTRO YA EXISTE                      
012012180001784797203MXP0000004999999.00MALLA PLASTICA SAN ANTONIO S.A785_MALLA PLASTICA SAN ANTONIO40COMERCIALIZADORA,SANANTONIO@HOTMAIL.COM                                          NOKNE0080CTA CLABE BANCOMER                      
012012180004440068529MXP0000004999999.00HERRAMIENTAS Y SERVICIOS PROFE784_HERRAMIENTAS Y SERVICIOS P40HYSP_DEWALT@HOTMAIL.COM                                                          NOKNE0080CTA CLABE BANCOMER                      
002002180037551532565MXP0000004999999.00ACCS REFRIGERACIONE AIRE ACOND787_ACCS REFRIGERACIONE AIRE A40FUTURE_HEAD15@HOTMAIL.COM                                                        NOKNE0818REGISTRO YA EXISTE                      
002002180408300316448MXP0000004999999.00CLEVIS IZTA S.A DE C.V        788_CLEVIS IZTA S.A DE C.V    40IZTA@CLEVISTECAMAC.COM.MX                                                        NOKNE0818REGISTRO YA EXISTE                      
072072180006027893294MXP0000004999999.00CHAMORRO FAVILA JOSE RAFAEL   746_CHAMORRO FAVILA JOSE RAFAE40ferreterapegaso@hotmail.com                                                      NOKNE0818REGISTRO YA EXISTE                      
058058580150546300152MXP0000004999999.003W SELLOEXPRESS S DE RL MI ART747_3W SELLOEXPRESS S DE RL MI40ferreterapegaso@hotmail.com                                                      NOKNE0818REGISTRO YA EXISTE                      
012012180004424275244MXP0000004999999.00ACEVEDO SANCHEZ GILBERTO      749_ACEVEDO SANCHEZ GILBERTO  40ferreterapegaso@hotmail.com                                                      NOKNE0080CTA CLABE BANCOMER                      
002002180063742594056MXP0000004999999.00CRUZ DIEGO JACOBO             750_CRUZ DIEGO JACOBO         40ferreterapegaso@hotmail.com                                                      NOKNE0818REGISTRO YA EXISTE                      
002002180700472133370MXP0000004999999.00VDI SOLUTIONS MEXICO S.A DE C.753_VDI SOLUTIONS MEXICO S.A D40ferreterapegaso@hotmail.com                                                      NOKNE0818REGISTRO YA EXISTE                      
072072180002740082373MXP0000004999999.00MULTISERVICIOS EN ROTULACION S714_MULTISERVICIOS EN ROTULACI40ferreterapegaso@hotmail.com                                                      NOKNE0818REGISTRO YA EXISTE                      
002002700700954091116MXP0000004999999.00RODRIGUEZ GOMEZ MINERVA       755_RODRIGUEZ GOMEZ MINERVA   40ferreterapegaso@hotmail.com                                                      NOKNE0818REGISTRO YA EXISTE                      
072072580008542435094MXP0000004999999.00SISTEMA INTEGRAL AR SA DE CV  757_SISTEMA INTEGRAL AR SA DE 40ferreterapegaso@hotmail.com                                                      NOKNE0818REGISTRO YA EXISTE                      
002002010065801616752MXP0000004999999.00DISTRIBUIDORA DE CEMENTO Y ACE790_DISTRIBUIDORA DE CEMENTO Y40SILSAAGS@HOTMAIL.COM                                                             NOKNE0818REGISTRO YA EXISTE                      
014014180110004358732MXP0000004999999.00SANCHEZ PEREZ YESICA          791_SANCHEZ PEREZ YESICA      40TIENDAIMPACTO@DECOFE.COM.MX                                                      NOKNE0818REGISTRO YA EXISTE                      
014014180655047183924MXP0000004999999.00RAZON EMPRESARIAL SA DE CV    792_RAZON EMPRESARIAL SA DE CV40ANABERTHAD@ALTAYBAJATENCION.COM                                                  NOKNE0818REGISTRO YA EXISTE                      
002002215700285217646MXP0000004999999.00HERRAMIENTAS ALEMANAS DE CELAY795_HERRAMIENTAS ALEMANAS DE C40JORGE@HALCE.COM.MX                                                               NOKNE0818REGISTRO YA EXISTE                      
012012180001962452852MXP0000004999999.00ALARM & SON ELECTRIC S.A      807_ALARM & SON ELECTRIC S.A  40BANOSINTEGRANTES@ALARMANDSON.COM.,X                                              NOKNE0080CTA CLABE BANCOMER                      
002002180025906188725MXP0000004999999.00PLASTICOS ALICA SA DE CV      1153_PLASTICOS ALICA SA DE CV 40JOVITA.ALICA.COM.MX                                                              NOKNE0818REGISTRO YA EXISTE                      
002002290082780794077MXP0000004999999.00HIDROTOOLS INTERNACIONAL SA DE773_HIDROTOOLS INTERNACIONAL S40ferreterapegaso@hotmail.com                                                      NOKNE0818REGISTRO YA EXISTE                      
002002180024441707468MXP0000004999999.00MANRIQUEZ PATIQO ERIC ALEJANDR774_MANRIQUEZ PATIQO ERIC ALEJ40INFO@ELMUNDODEPORTIVO.COM.MX                                                     NOKNE0818REGISTRO YA EXISTE                      
002002180045874382112MXP0000004999999.00CARMASTER ELECTRONICS S.A DE C776_CARMASTER ELECTRONICS S.A 40CENTRO.9D@MASTER.COM.MX                                                          NOKNE0818REGISTRO YA EXISTE                      
002002180427100671254MXP0000004999999.00X SOLUCIONES INTEGRADAS DE ING778_X SOLUCIONES INTEGRADAS DE40XBOMBAS@GMAIL.COM                                                                NOKNE0818REGISTRO YA EXISTE                      
002002180700683811326MXP0000004999999.00GABRIELA CORREA ALVA          732_GABRIELA CORREA ALVA      40alexmat30@hotmail.com                                                            NOKNE0818REGISTRO YA EXISTE                      
002002180700550353791MXP0000004999999.00NAKOMSA KOMFORT AMBIENTAL S.A 799_NAKOMSA KOMFORT AMBIENTAL 40INFO@NAKOMSA.COM                                                                 NOKNE0047ASUNTO NO VALIDO                        
002002180700441561119MXP0000004999999.00JOSE JASQUI AMIGA             801_JOSE JASQUI AMIGA         40VENTAS_JUANA@NES.COM.MX                                                          NOKNE0818REGISTRO YA EXISTE                      
002002180026137068477MXP0000004999999.00AISLANTES Y ACUSTICOS S.A DE C802_AISLANTES Y ACUSTICOS S.A 40STUCCO@PRODIGY.NET.MX                                                            NOKNE0818REGISTRO YA EXISTE                      
002002580433000007473MXP0000004999999.00SANILOCK COMORCIAL S.A DE C.V 804_SANILOCK COMORCIAL S.A DE 40ferreterapegaso@hotmail.com                                                      NOKNE0818REGISTRO YA EXISTE                      
002002180025941532970MXP0000004999999.00RIVERA CASTEJON ELSA          813_RIVERA CASTEJON ELSA      40ferreterapegaso@hotmail.com                                                      NOKNE0818REGISTRO YA EXISTE                      
021021320040543195612MXP0000004999999.00MANUFACTURA CIMA SPR DE RL    815_MANUFACTURA CIMA SPR DE RL40VENTAS_GOBIERNO @SERVINOX.COM.MX                                                 NOKNE0818REGISTRO YA EXISTE                      
021021650040107425427MXP0000004999999.00ACEROS Y MATERIALES LA ESPERAN829_ACEROS Y MATERIALES LA ESP40MATERIALESLA ESPERANZA@HOTMAIL.COM                                               NOKNE0818REGISTRO YA EXISTE                      
002002580018606604035MXP0000004999999.00MAR INDUSTRIAL DISTRIBUIDORA S833_MAR INDUSTRIAL DISTRIBUIDO40VENTAS2@MIDSA.COM.MX                                                             NOKNE0818REGISTRO YA EXISTE                      
014014680655051625473MXP0000004999999.00SAEC, S.A DE C.V              851_SAEC, S.A DE C.V          40TERE_MARQUEZSAEC@HOTMAIL.COM                                                     NOKNE0818REGISTRO YA EXISTE                      
044044680035041602669MXP0000004999999.00XINOVA S.A DE C.V             853_XINOVA S.A DE C.V         40ferreterapegaso@hotmail.com                                                      NOKNE0818REGISTRO YA EXISTE                      
002002180016041945007MXP0000004999999.00MAGNOEQUIPOS POMPA S.A DE C.V 856_MAGNOEQUIPOS POMPA S.A DE 40EPOMPA@SWISSMEX.COM.MX                                                           NOKNE0818REGISTRO YA EXISTE                      
014014180220000017226MXP0000004999999.00EL OSO SA DE CV               857_EL OSO SA DE CV           40GUADALUPE.VARGAS@EL-OSO.COM.MX                                                   NOKNE0818REGISTRO YA EXISTE                      
014014540920021268871MXP0000004999999.00ACEROS VIJAF S.A C.V          860_ACEROS VIJAF S.A C.V      40ACERO_SALOMON@HOTMAIL.COM                                                        NOKNE0818REGISTRO YA EXISTE                      
002002580008790751309MXP0000004999999.00TWILIGHT S.A DE CV            861_TWILIGHT S.A DE CV        40TWILIGHT@TWILIGHT.COM                                                            NOKNE0818REGISTRO YA EXISTE                      
002002320700646920360MXP0000004999999.00POWER DEPOT SA DE CV          837_POWER DEPOT SA DE CV      40MBIZARRO@PAWERDEPOT.MX                                                           NOKNE0818REGISTRO YA EXISTE                      
021021180040274886838MXP0000004999999.00FRANCISCO CHAVEZ TORRES       865_FRANCISCO CHAVEZ TORRES   40CASACHAVEZ_VENTAS@HOTMAIL.COM                                                    NOKNE0818REGISTRO YA EXISTE                      
002002180041480026015MXP0000004999999.00OSO PRODUCTOS S.A DE C.V      877_OSO PRODUCTOS S.A DE C.V  40INFO@OSOP.MX                                                                     NOKNE0818REGISTRO YA EXISTE                      
002002180018306987753MXP0000004999999.00EMPAQUETADURAS Y MANGERAS INDU882_EMPAQUETADURAS Y MANGERAS 40ENRIUQUE@EMISAMEXICO.COM.MX                                                      NOKNE0818REGISTRO YA EXISTE                      
002002685444400394023MXP0000004999999.00FERRETERA SAN JUAN S.A DE C.V 883_FERRETERA SAN JUAN S.A DE 40CUAUTEMOC.O@FERRETERASANJUAN.COM.MX                                              NOKNE0818REGISTRO YA EXISTE                      
002002180700084195722MXP0000004999999.00GRUPO MADERERO SAN ESTEBAN S.A1344_GRUPO MADERERO SAN ESTEBA40contacto@gmsanesteban                                                            NOKNE0818REGISTRO YA EXISTE                      
002002180071800481161MXP0000004999999.00ATP EXTINTORES SA DE CV       890_ATP EXTINTORES SA DE CV   40ventas@seguridadtp.com.mx                                                        NOKNE0818REGISTRO YA EXISTE                      
002002180050856568826MXP0000004999999.00EM-PAC DE MEXICO S.A DE C.V   911_EM-PAC DE MEXICO S.A DE C.40VALLEJO@EMPACK.COM.MX                                                            NOKNE0818REGISTRO YA EXISTE                      
021021180040206869784MXP0000004999999.00 SERGIO ANDRES ALVAREZRAVELO  914_ SERGIO ANDRES ALVAREZRAVE40MAGO.TOLEDOREFRIGERACION@HOTMAIL.COM                                             NOKNE0818REGISTRO YA EXISTE                      
021021158040201986856MXP0000004999999.00MATERIALES DEL NORTE CUAHUTEMO915_MATERIALES DEL NORTE CUAHU40SERVICIO@MUCHOMATERIAL.COM                                                       NOKNE0818REGISTRO YA EXISTE                      
002002180700531347832MXP0000004999999.00ANTONIO DE JESUS HERNANDEZ GOD918_ANTONIO DE JESUS HERNANDEZ40VCMFALCON@LIVE.COM.MX                                                            NOKNE0818REGISTRO YA EXISTE                      
036036650500213080663MXP0000004999999.00ALTA TECNOLOGIA DE FLUIDOS DE 906_ALTA TECNOLOGIA DE FLUIDOS40ATTECFLUIDOS@GMAIL.COM                                                           NOKNE0818REGISTRO YA EXISTE                      
058058700000000255848MXP0000004999999.00CORPORATIVO IMPROZOL DE SA DE 925_CORPORATIVO IMPROZOL DE SA40FACTURACIO@DASEL.MX                                                              NOKNE0818REGISTRO YA EXISTE                      
002002180045754110831MXP0000004999999.00REFRIGERACION ESPECIALIZADA CO926_REFRIGERACION ESPECIALIZAD40TALNEPANTLA@RECZA.COM.MX                                                         NOKNE0818REGISTRO YA EXISTE                      
014014180605366094401MXP0000004999999.00VALENTIN SOPERANEZ MIGUEL     929_VALENTIN SOPERANEZ MIGUEL 40ZEROX_127@HOTMAIL.COM                                                            NOKNE0818REGISTRO YA EXISTE                      
002002180057484729690MXP0000004999999.00INDUSTRIAL DE ENVASES ULLOA S.930_INDUSTRIAL DE ENVASES ULLO40ENV_ULLOA@HOTMAIL.COM                                                            NOKNE0818REGISTRO YA EXISTE                      
072072180001021302359MXP0000004999999.00SOLEDAD ROMERO PINEDO         942_SOLEDAD ROMERO PINEDO     40HULEAUTOMOTRICES@YAHOO.COM.MX                                                    NOKNE0818REGISTRO YA EXISTE                      
002002180053876703451MXP0000004999999.00ARTICULOS Y ARTEFACTOS DE HULE935_ARTICULOS Y ARTEFACTOS DE 40EDUARDO.VENTAS@ASTROMEDICA.COM.MX                                                NOKNE0818REGISTRO YA EXISTE                      
002002580008777305574MXP0000004999999.00HOME DEPOT MEXICO S DE R.L DE 944_HOME DEPOT MEXICO S DE R.L40ferreterapegaso@hotmail.com                                                      NOKNE0818REGISTRO YA EXISTE                      
002002180087005343250MXP0000004999999.00AUTOZONE DE MEXICO S DE R.L DE945_AUTOZONE DE MEXICO S DE R.40ferreterapegaso@hotmail.com                                                      NOKNE0818REGISTRO YA EXISTE                      
002002580035276300878MXP0000004999999.00RIPIPSA S.A DE C.V            948_RIPIPSA S.A DE C.V        40VENTAS3MEX@RIPIPSA.COM                                                           NOKNE0818REGISTRO YA EXISTE                      
021021180040579904596MXP0000004999999.00INGENIERIA EN ESPEJOS-MX, S. D952_INGENIERIA EN ESPEJOS-MX, 40ESPEJOS@ESPEJOS..COM.MX                                                          NOKNE0818REGISTRO YA EXISTE                      
002002180034777579949MXP0000004999999.00INTERNATIONAL CLEAN SA DE CV  963_INTERNATIONAL CLEAN SA DE 40PBAEZ@INTERCESCO.COM                                                             NOKNE0818REGISTRO YA EXISTE                      
002002580008777305574MXP0000004999999.00HOME DEPOT S. DE RL DE C.V (SU965_HOME DEPOT S. DE RL DE C.V40ferreterapegaso@hotmail.com                                                      NOKNE0818REGISTRO YA EXISTE                      
072072180001531719034MXP0000004999999.00DAVID GOMEZ REYES             954_DAVID GOMEZ REYES         40VENTAS@LUCELEDS.COM                                                              NOKNE0818REGISTRO YA EXISTE                      
002002180051461971690MXP0000004999999.00MARTINEZ TRUJILLO SAUL        956_MARTINEZ TRUJILLO SAUL    40XPLORA-TE@HOTMAIL.COM                                                            NOKNE0818REGISTRO YA EXISTE                      
002002180049154322500MXP0000004999999.00COLIN SANDOVAL HUGO           958_COLIN SANDOVAL HUGO       40MAXISEGURIITY@YAHOO.COM.MX                                                       NOKNE0818REGISTRO YA EXISTE                      
002002420028508461730MXP0000004999999.00HENSA DISTRIBUCIONES S.A DE C.959_HENSA DISTRIBUCIONES S.A D40RENE@GRUPOHENDA.COM.MX  RENE GUZMAN                                              NOKNE0818REGISTRO YA EXISTE                      
002002840700662649613MXP0000004999999.00CAMPOS REYEROS Y CIA S.A DE C.960_CAMPOS REYEROS Y CIA S.A D40OCOTAN_GDI@CAMPOSREYEROS.COM                                                     NOKNE0818REGISTRO YA EXISTE                      
002002180700203753275MXP0000004999999.00MARIA DEL SOCORRO RUIZ SOLANO 967_MARIA DEL SOCORRO RUIZ SOL40HCVENTAS@LIVE.COM.MX                                                             NOKNE0818REGISTRO YA EXISTE                      
012012580004433780472MXP0000004999999.00EMPRESA MEXICANA DE MANUFACTUR970_EMPRESA MEXICANA DE MANUFA40MVARGASL@EMMSA.COM                                                               NOKNE0080CTA CLABE BANCOMER                      
002002180087000065588MXP0000004999999.00PRAXAIR MEXICO S DE RL DE C.V 972_PRAXAIR MEXICO S DE RL DE 40MARCO_ROA@PRAXAIR.COM                                                            NOKNE0818REGISTRO YA EXISTE                      
002002580008777305574MXP0000004999999.00HOME DEPOT MEXICO S DE R.L DE 1010_HOME DEPOT MEXICO S DE R.408762-STOREOFFICE1@HOMEDEPOT.COM.MX                                               NOKNE0818REGISTRO YA EXISTE                      
072072180001407616216MXP0000004999999.00CORPORACION DE ASESORES WAGNER1012_CORPORACION DE ASESORES W40HORTEGA@CORPORACIONWAGNER.COM                                                    NOKNE0818REGISTRO YA EXISTE                      
072072456002613273600MXP0000004999999.00TRIBOLOGIA INDUSTRIAL EL LUBRI1016_TRIBOLOGIA INDUSTRIAL EL 40trilubsa@hotmail.com                                                             NOKNE0818REGISTRO YA EXISTE                      
002002580008777305574MXP0000004999999.00HOME DEPOT MEXICO S DE R.L. DE1021_HOME DEPOT MEXICO S DE R.40ferreterapegaso@hotmail.com                                                      NOKNE0818REGISTRO YA EXISTE                      
044044180001002911616MXP0000004999999.00RODAJAS Y PRODUCTOS METALICOS 1023_RODAJAS Y PRODUCTOS METAL40RODAYPM@PRODIGY.NET.MX                                                           NOKNE0818REGISTRO YA EXISTE                      
002002180033330833609MXP0000004999999.00CARLOS BERNAL MARQUEZ         1024_CARLOS BERNAL MARQUEZ    40VENTASNIKKOAUTOBOUTIQUE@GMAIL.COM                                                NOKNE0818REGISTRO YA EXISTE                      
002002580078400283346MXP0000004999999.00DECTECTORES IMPORTADOS S.A DE 1033_DECTECTORES IMPORTADOS S.40INFO@MASTERDETECTOR.COM.MX                                                       NOKNE0818REGISTRO YA EXISTE                      
002002180700955758285MXP0000004999999.00ARTURO TOVAR MOSO             1036_ARTURO TOVAR MOSO        40SILLAS DELTA@OUTLOOK.COM                                                         NOKNE0818REGISTRO YA EXISTE                      
002002180418400069038MXP0000004999999.00D AGUA S.A DE C.V             1037_D AGUA S.A DE C.V        40D.AGUA@LIVE.COM                                                                  NOKNE0818REGISTRO YA EXISTE                      
072072180002141830946MXP0000004999999.00ROBERTO RESENDIZ JUAREZ       1045_ROBERTO RESENDIZ JUAREZ  40SEGUIMIENTO1TPMEQUIPOS@GMAIL.COM                                                 NOKNE0818REGISTRO YA EXISTE                      
002002180700641143502MXP0000004999999.00CHRISTOPER GONZALEZ REYES     1046_CHRISTOPER GONZALEZ REYES40SENALESUNIVERSALES@HOTMAIL.COM                                                   NOKNE0818REGISTRO YA EXISTE                      
021021460040540063584MXP0000004999999.00YOLANDA GUILLEN GARCIA        1049_YOLANDA GUILLEN GARCIA   40RICARDO.GARCIA66@YAHOO.COM.MX                                                    NOKNE0818REGISTRO YA EXISTE                      
002002180436301194738MXP0000004999999.00DAVID ENRIQUE DIAZ GARCIA     1050_DAVID ENRIQUE DIAZ GARCIA40DIAS.ENRIQUE@UTPMEX.COM                                                          NOKNE0818REGISTRO YA EXISTE                      
002002045700783780243MXP0000004999999.00JUAN CARLOS VERBOONEN ESPINO  1076_JUAN CARLOS VERBOONEN ESP40PANELESYPLAFONES@GMAIL.COM                                                       NOKNE0818REGISTRO YA EXISTE                      
072072180005262683040MXP0000004999999.00ANDRES ENRIQUE LACK ALVA      1077_ANDRES ENRIQUE LACK ALVA 40ESPECIALIDAD_EN_ABRASIVOS@YAHOO.COM                                              NOKNE0818REGISTRO YA EXISTE                      
012012180004517758474MXP0000004999999.00SERVICIO Y HERRAMIENTAS PARA C1078_SERVICIO Y HERRAMIENTAS P40VALENTIN.SHECSA@GMAIL.COM                                                        NOKNE0080CTA CLABE BANCOMER                      
072072691001323170419MXP0000004999999.00PINTURAS MARTINEZ DEL CARIBE S1079_PINTURAS MARTINEZ DEL CAR40COZUMEL1MTZ@PINTURASMARTINEZ.COM                                                 NOKNE0818REGISTRO YA EXISTE                      
036036778500153161236MXP0000004999999.00ARTURO CUBILLAS BOURS         1082_ARTURO CUBILLAS BOURS    40VENTAS@CUBILLASTOOLS.COM                                                         NOKNE0818REGISTRO YA EXISTE                      
021021180040121724179MXP0000004999999.00ANGEL MARTINEZ CRUZ           1084_ANGEL MARTINEZ CRUZ      40VENTAS@LONASDENAUCALPAN.COM.MX                                                   NOKNE0818REGISTRO YA EXISTE                      
072072180002409461044MXP0000004999999.00MATERIALES INDUSTRIALES OLEKA 1085_MATERIALES INDUSTRIALES O40LUISA.OLVERA@MATERIALESOLEKA.COM                                                 NOKNE0818REGISTRO YA EXISTE                      
072072180006315821376MXP0000004999999.00HOMERO VIRGILIO VILLAREAL GUTI1091_HOMERO VIRGILIO VILLAREAL40HV@SEGURIDADCONSULTORES.NET                                                      NOKNE0818REGISTRO YA EXISTE                      
002002180054185067191MXP0000004999999.00QUIMICA COLOR SA DE CV        1092_QUIMICA COLOR SA DE CV   40QUIMICA COLOR@HOTMAIL.COM                                                        NOKNE0818REGISTRO YA EXISTE                      
012012180001346044310MXP0000004999999.00MANUFACTURAS ELECTRICAS ORION,1090_MANUFACTURAS ELECTRICAS O40ORION@TRANSFORMADORESORION.COM.MX                                                NOKNE0080CTA CLABE BANCOMER                      
002002180700438728088MXP0000004999999.00MAC REFRIGERACION Y AIRE ACOND1099_MAC REFRIGERACION Y AIRE 40MACREFRIGERACION@HOTMAIL.COM                                                     NOKNE0818REGISTRO YA EXISTE                      
002002180056385440697MXP0000004999999.00REFACCIONES Y AUTOPARTES SANTA1113_REFACCIONES Y AUTOPARTES 40TLALNEPANTLA-2@REFACCIONARIACALIFORNIA.COM.MX                                    NOKNE0818REGISTRO YA EXISTE                      
044044180001021058194MXP0000004999999.00DISTRIBUIDORA ROZAM DE MEXICO 1102_DISTRIBUIDORA ROZAM DE ME40ferreterapegaso@hotmail.com                                                      NOKNE0818REGISTRO YA EXISTE                      
044044180001009076952MXP0000004999999.00FERRETERA LA CURVA T.H S.A DE 1103_FERRETERA LA CURVA T.H S.40FACTURAFERRE@GMAIL.COM                                                           NOKNE0818REGISTRO YA EXISTE                      
002002180700028305727MXP0000004999999.00FERREBOMBAS Y MOTORES DEL CENT1122_FERREBOMBAS Y MOTORES DEL40ferreterapegaso@hotmail.com                                                      NOKNE0818REGISTRO YA EXISTE                      
002002180700704455632MXP0000004999999.00ANTONIO REBOLLAR AGUIRRE      1117_ANTONIO REBOLLAR AGUIRRE 40led-tronik@hotmail.com                                                           NOKNE0818REGISTRO YA EXISTE                      
002002180650212024061MXP0000004999999.00CIA SHERWIN WILLIAMS S.A DE C.1119_CIA SHERWIN WILLIAMS S.A 40RICARDOGOMEZ@SHERWIN.COM.MX                                                      NOKNE0818REGISTRO YA EXISTE                      
021021760040244732662MXP0000004999999.00CARLOS ALBERTO CAMACHO        1351_CARLOS ALBERTO CAMACHO   40materialescasa@hotmail.com                                                       NOKNE0818REGISTRO YA EXISTE                      
044044180001052307843MXP0000004999999.00FERNANDO MEJIA MENDEZ         1107_FERNANDO MEJIA MENDEZ    40CUBIAIN70@HOTMAIL.COM                                                            NOKNE0818REGISTRO YA EXISTE                      
002002180054185514398MXP0000004999999.00CENTRAL DE SUMINISTROS DEL SUR1127_CENTRAL DE SUMINISTROS DE40VENTASCENTRAL@PRODIGY.NET.MX                                                     NOKNE0818REGISTRO YA EXISTE                      
002002180475600574971MXP0000004999999.00SEBASTIAN BONIFACIO HERNANDEZ 1154_SEBASTIAN BONIFACIO HERNA40ferreterapegaso@hotmail.com                                                      NOKNE0818REGISTRO YA EXISTE                      
072072470006320452550MXP0000004999999.00AMIUD JAHAZIEL CARRILLO ORTEGA1135_AMIUD JAHAZIEL CARRILLO O40COMERCIO@CARTEGO.COM.MX                                                          NOKNE0818REGISTRO YA EXISTE                      
014014180655047183924MXP0000004999999.00RAZON EMPRESARIAL S.A DE C.V  1137_RAZON EMPRESARIAL S.A DE 40ferreterapegaso@hotmail.com                                                      NOKNE0818REGISTRO YA EXISTE                      
014014180605676528078MXP0000004999999.00CARLOS SANTIAGO GONZALEZ LAMAS1145_CARLOS SANTIAGO GONZALEZ 40ELI.ALPES@GMAIL.COM   WWW.ALPESCOMERCIALIZADORA.COM                              NOKNE0818REGISTRO YA EXISTE                      
002002180700634426210MXP0000004999999.00ARTURO SANCHEZ MENDEZ         1150_ARTURO SANCHEZ MENDEZ    40ferreterapegaso@hotmail.com                                                      NOKNE0818REGISTRO YA EXISTE                      
002002320025555027217MXP0000004999999.00OXIGENO Y ELECTRODOS DE JALISC1151_OXIGENO Y ELECTRODOS DE J40servicio@oxejalsa.com                                                            NOKNE0818REGISTRO YA EXISTE                      
002002580008777305574MXP0000004999999.00HOME DEPOT  MEXICO S. DE RL. D1155_HOME DEPOT  MEXICO S. DE 408748-SALESREP@HOMEDEPOT.COM.MX                                                   NOKNE0818REGISTRO YA EXISTE                      
014014457655050646314MXP0000004999999.00INDUSTRIAS CERTANIUM SA DE CV 1158_INDUSTRIAS CERTANIUM SA D40INFO@CERTANIUMGROUP.COM                                                          NOKNE0818REGISTRO YA EXISTE                      
002002180051461276913MXP0000004999999.00ALAIN ROBERTO BEER ACEVES     1157_ALAIN ROBERTO BEER ACEVES40PROVEDUCTOS@PRODIGY.NET.MX                                                       NOKNE0818REGISTRO YA EXISTE                      
000000218003290002981MXP0000004999999.00LABORATORIOS FRU Y VEU SA DE C1254_LABORATORIOS FRU Y VEU SA40lilian.cortes@fruyveu.com.mx                                                     NOKNE0010ERROR DE BANCO EN CUENTA CLABE          
002002580481000134550MXP0000004999999.00RNR REFRIGERACION Y ACCESORIOS1226_RNR REFRIGERACION Y ACCES40cobranza@gruponr.com//cobranzanr@hotmail.com                                     NOKNE0818REGISTRO YA EXISTE                      
002002180087000413965MXP0000004999999.00FABRICA DE JABON LA CORONA SA 1233_FABRICA DE JABON LA CORON40ygutierrez@lacorona.info                                                         NOKNE0818REGISTRO YA EXISTE                      
127127180013905524879MXP0000004999999.00VICTOR MANUEL VASQUEZ SUASTEGU1227_VICTOR MANUEL VASQUEZ SUA40info@zonadelarte.com.mx                                                          NOKNE0818REGISTRO YA EXISTE                      
002002180024503893427MXP0000004999999.00MANTENIMIENTO ELECTRONICO Y CO1232_MANTENIMIENTO ELECTRONICO40ventas3@melcsa.com                                                               NOKNE0818REGISTRO YA EXISTE                      
002002180065147084855MXP0000004999999.00KIEKEN GROUP SA DE CV         1282_KIEKEN GROUP SA DE CV    40contacto@ekg.mx                                                                  NOKNE0818REGISTRO YA EXISTE                      
002002180037947439311MXP0000004999999.00ELECTRO SERVICIO INDUSTRIAL HI1174_ELECTRO SERVICIO INDUSTRI40ESIHSA@PRODIGY.NET                                                               NOKNE0818REGISTRO YA EXISTE                      
002002180700708554788MXP0000004999999.00SANTEK SOLUCIONES SA DE CV    1175_SANTEK SOLUCIONES SA DE C40AMRIOS@SANTEK.COM.MX                                                             NOKNE0818REGISTRO YA EXISTE                      
002002180087000306616MXP0000004999999.00INFRA SA DE CV (IZTAPALAPA)   1231_INFRA SA DE CV (IZTAPALAP40iztapalapa@infra.com.mx                                                          NOKNE0818REGISTRO YA EXISTE                      
044044180001060643887MXP0000004999999.00TORNILLOS SALOMOY SA DE CV    1236_TORNILLOS SALOMOY SA DE C40ventas2@lacasadeltornillo.email                                                  NOKNE0818REGISTRO YA EXISTE                      
021021650040404708821MXP0000004999999.00INDUSTRIAL DE ALAMBRES SA DE C1239_INDUSTRIAL DE ALAMBRES SA40recepcion-de-cfd@indasa.com.mx                                                   NOKNE0818REGISTRO YA EXISTE                      
014014180605709070040MXP0000004999999.00LAURIANO RUFINO GARCIA        1245_LAURIANO RUFINO GARCIA   40laura_rugalar@hotmail.com                                                        NOKNE0818REGISTRO YA EXISTE                      
002002180037930256954MXP0000004999999.00SERVICABLES SA DE CV          1237_SERVICABLES SA DE CV     40mostrador@servicables.com.mx                                                     NOKNE0818REGISTRO YA EXISTE                      
021021180040602529136MXP0000004999999.00CAREN MOCTEZUMA REYES         1301_CAREN MOCTEZUMA REYES    40distribuidora.Hidromex@gmail.com                                                 NOKNE0818REGISTRO YA EXISTE                      
002002180050900230301MXP0000004999999.00CASA SERRA SUCESORES SA DE CV 1248_CASA SERRA SUCESORES SA D40casaserra@mexis.com                                                              NOKNE0818REGISTRO YA EXISTE                      
002002420700073307139MXP0000004999999.00EQUIPOS ELECTRONICOS DE LUJO S1246_EQUIPOS ELECTRONICOS DE L40ventas1@electronicosdelujo.com.mx                                                NOKNE0818REGISTRO YA EXISTE                      
014014180920014119957MXP0000004999999.00ROBERTS Y ESPARTA S.A. DE C.V.1305_ROBERTS Y ESPARTA S.A. DE40roberts_ventas@yahoo.com.mx                                                      NOKNE0818REGISTRO YA EXISTE                      
002002180094862097017MXP0000004999999.00BALEROS ESPECIALES CUITLAHUAC 1250_BALEROS ESPECIALES CUITLA40becsa_zarsa@outloon.com                                                          NOKNE0818REGISTRO YA EXISTE                      
002002180700776031563MXP0000004999999.00JULIO CESAR HERNANDEZ GUTIERRE1279_JULIO CESAR HERNANDEZ GUT40ferreterapegaso@hotmail.com                                                      NOKNE0818REGISTRO YA EXISTE                      
002002100700374413314MXP0000004999999.00CRISTAGGT DE MEXICO SA DE CV  1256_CRISTAGGT DE MEXICO SA DE40ventas _templado_02@eristasur.com.mx                                             NOKNE0818REGISTRO YA EXISTE                      
030030180900010715003MXP0000004999999.00AIRE Y CLIMA ESPECIALIZADO DIA1271_AIRE Y CLIMA ESPECIALIZAD40gerenciaventas@aireyclima.com.mx                                                 NOKNE0818REGISTRO YA EXISTE                      
002002180037045744869MXP0000004999999.00PAULISTAS SA DE CV            1178_PAULISTAS SA DE CV       40ERIKA.BAEZ@PAULISTAS.COM.MX                                                      NOKNE0818REGISTRO YA EXISTE                      
002002180034777375949MXP0000004999999.00DISTRIBUCION INTERCERAMIC SA D1183_DISTRIBUCION INTERCERAMIC40VTASSATELITE4@INTERCERAMIC.COM                                                   NOKNE0818REGISTRO YA EXISTE                      
072072580005022062980MXP0000004999999.00HERRAMIENTAS GEMELO SA DE CV  1185_HERRAMIENTAS GEMELO SA DE40JHERNANDEZ@GRUPOGEMELO.COM                                                       NOKNE0818REGISTRO YA EXISTE                      
021021320040447476990MXP0000004999999.00EQUIPOS MATERIALES ACCESORIOS 1192_EQUIPOS MATERIALES ACCESO40VENTASMAIL@EMAR.COM.MX                                                           NOKNE0818REGISTRO YA EXISTE                      
044044180001061064711MXP0000004999999.00BODEGA DE PAPEL MESONES SA DE 1186_BODEGA DE PAPEL MESONES S40ferreterapegaso@hotmail.com                                                      NOKNE0818REGISTRO YA EXISTE                      
002002060008376023861MXP0000004999999.00CIA. MERCANTIL FERRETERA SA DE1187_CIA. MERCANTIL FERRETERA 40JCHAVEZ@MERCANTILFERRETERA.COM                                                   NOKNE0818REGISTRO YA EXISTE                      
002002180700247614859MXP0000004999999.00COMERCIALIZADORA DE MEJIA Y LA1189_COMERCIALIZADORA DE MEJIA40KRAYAMA@PRODIGY.NET.MX                                                           NOKNE0818REGISTRO YA EXISTE                      
021021180040215706760MXP0000004999999.00LILIA ISABEL MIRANDA HERNANEZ 1190_LILIA ISABEL MIRANDA HERN40VENTAS@GRUPOTRINSA.COM                                                           NOKNE0818REGISTRO YA EXISTE                      
021021180040581420356MXP0000004999999.00ADRENALX, SA DE CV            1202_ADRENALX, SA DE CV       40ventasnorte@psycogotcha.com                                                      NOKNE0818REGISTRO YA EXISTE                      
021021180040435268884MXP0000004999999.00NATIONAL PAINTBALL DEALER MEXI1205_NATIONAL PAINTBALL DEALER40ferreterapegaso@hotmail.com                                                      NOKNE0818REGISTRO YA EXISTE                      
002002180050560806379MXP0000004999999.00SISTEMAS DE COMPUTO Y REDES IN1203_SISTEMAS DE COMPUTO Y RED40ferreterapegaso@hotmail.com                                                      NOKNE0818REGISTRO YA EXISTE                      
002002180700247614859MXP0000004999999.00COMERCIALIZADORA MEJIA Y LAM S1195_COMERCIALIZADORA MEJIA Y 40KRAYMA@PRODIGY.NET.MX                                                            NOKNE0818REGISTRO YA EXISTE                      
002002580008777305574MXP0000004999999.00HOME DEPOT MEXICO S DE RL DE C1209_HOME DEPOT MEXICO S DE RL40ferreterapegaso@hotmail.com                                                      NOKNE0818REGISTRO YA EXISTE                      
002002580067874112999MXP0000004999999.00GRUPO NAMM SA DE CV           1210_GRUPO NAMM SA DE CV      40ferreterapegaso@hotmail.com                                                      NOKNE0818REGISTRO YA EXISTE                      
021021180040497523635MXP0000004999999.00SISTEMAS ECOLOGISCOS PARA EL C1215_SISTEMAS ECOLOGISCOS PARA40benjamin.lopez@univarmexico.com                                                  NOKNE0818REGISTRO YA EXISTE                      
002002580466200027712MXP0000004999999.00PC ONLINE SA DE CV            1216_PC ONLINE SA DE CV       40manuel.jesus@pcel.com                                                            NOKNE0818REGISTRO YA EXISTE                      
014014180655044121853MXP0000004999999.00SKT ONE SA DE CV              1222_SKT ONE SA DE CV         40ariadna.hernandez@fandeal.com.mx                                                 NOKNE0818REGISTRO YA EXISTE                      
002002290069300231658MXP0000004999999.00LLANTERAMA HIDALGUENSE SA DE C1213_LLANTERAMA HIDALGUENSE SA40tlalnepantla_gdy@hotmail.com                                                     NOKNE0818REGISTRO YA EXISTE                      
002002180052160875012MXP0000004999999.00TECNOLOGIAS DE MANTENIMIENTO V1211_TECNOLOGIAS DE MANTENIMIE40ferreterapegaso@hotmail.com                                                      NOKNE0818REGISTRO YA EXISTE                      
002002180700989053574MXP0000004999999.00TECNICA SPAMER DE MEXICO SA DE1218_TECNICA SPAMER DE MEXICO 40tecnicasnexQgmail.com                                                            NOKNE0818REGISTRO YA EXISTE                      
021021580040215041546MXP0000004999999.00TOOLS & SERVICE DE MEXICO SA D1221_TOOLS & SERVICE DE MEXICO40vain.meza@toolsmexico.com                                                        NOKNE0818REGISTRO YA EXISTE                      
002002180051658130671MXP0000004999999.00SISTEMAS ECONOMICOS DE LEVANTE1251_SISTEMAS ECONOMICOS DE LE40sela_sacv@hotmail.com                                                            NOKNE0818REGISTRO YA EXISTE                      
002002180022715729598MXP0000004999999.00MIGUEL MORENO JASQUI          1264_MIGUEL MORENO JASQUI     40ventas@abreco.com.mx                                                             NOKNE0818REGISTRO YA EXISTE                      
002002180041450920303MXP0000004999999.00PARAFINAS Y CERAS ESPECIALES S1272_PARAFINAS Y CERAS ESPECIA40paycesa@prodigy.net.mx                                                           NOKNE0818REGISTRO YA EXISTE                      
021021180040483422407MXP0000004999999.00AEGMX ENTERPRISES SA DE CV    1287_AEGMX ENTERPRISES SA DE C40pamelacano@agindustrias.com.mx                                                   NOKNE0818REGISTRO YA EXISTE                      
021021180040563696069MXP0000004999999.00JESUS GODINEZ GONZALEZ        1217_JESUS GODINEZ GONZALEZ   40mexa@prodigy.net.mx                                                              NOKNE0818REGISTRO YA EXISTE                      
002002180700741047443MXP0000004999999.00REPINTADO AUTOMOTRIZ K&M SA DE1285_REPINTADO AUTOMOTRIZ K&M 40dupontchalma@outllok.com                                                         NOKNE0818REGISTRO YA EXISTE                      
002002180010077323725MXP0000004999999.00PARTS SHOP ELECTRONICS SA DE C1288_PARTS SHOP ELECTRONICS SA40ferreterapegaso@hotmail.com                                                      NOKNE0818REGISTRO YA EXISTE                      
036036180500297491926MXP0000004999999.00RAMON CRUZ RAMIREZ            1274_RAMON CRUZ RAMIREZ       40ortosumor@gmail.com                                                              NOKNE0818REGISTRO YA EXISTE                      
002002180087000541536MXP0000004999999.00EUROCHEM INTERNATIONAL CORPORA1275_EUROCHEM INTERNATIONAL CO40mcerecero@eurochem.com                                                           NOKNE0818REGISTRO YA EXISTE                      
002002180062781823459MXP0000004999999.00REFACCIONARIA ASTUDILLO PARRIL1298_REFACCIONARIA ASTUDILLO P40ventas@refapar.com.mx                                                            NOKNE0818REGISTRO YA EXISTE                      
002002180021243866940MXP0000004999999.00CONCRETOS ASFALTICOS PIRAMIDE 1290_CONCRETOS ASFALTICOS PIRA40bmedina@asfaltosgcp.com                                                          NOKNE0818REGISTRO YA EXISTE                      
