10000984975071810310001FERRETERA PEGASO SA DE CV          Pago de nomina      15D01
210010000000000000030780100000000070046234055000011
30001010010000000000000000101300005256782201141994    Pegaso SA CVANAYELI,MARTINEZ/TORRIJOS                                                                                                                                                                          000000                                                                                                                                                        
30001010010000000000000000102300005177126760141696    Pegaso SA CVKARLA FABIOLA,ZARAGOZA/HERNANDEZ                                                                                                                                                                   000000                                                                                                                                                        
30001010010000000000000000103300005256782855226596    Pegaso SA CVARTURO,ROSALES/ESCAMILLA                                                                                                                                                                           000000                                                                                                                                                        
30001010010000000000000000104300005256782855225499    Pegaso SA CVAURORA LAURA,VAZQUEZ/AGIS                                                                                                                                                                          000000                                                                                                                                                        
30001010010000000000000000105300005204165312419694    Pegaso SA CVYULIANA,GARCIA/GUTIERREZ                                                                                                                                                                           000000                                                                                                                                                        
30001010010000000000000000106300005256782855227495    Pegaso SA CVJOSUE CARLOS,GONZALEZ/PELLEGRINI                                                                                                                                                                   000000                                                                                                                                                        
30001010010000000000000000107300005256782344904696    Pegaso SA CVJORGE ALBERTO,LUVINOFF/ARROYO                                                                                                                                                                      000000                                                                                                                                                        
30001010010000000000000000108300005256782855228493    Pegaso SA CVJUAN MANUEL,ELIZONDO/LOPEZ                                                                                                                                                                         000000                                                                                                                                                        
30001010010000000000000000109300005204165312330990    Pegaso SA CVJENNIFER LIZETH,HERNANDEZ/BEZARES                                                                                                                                                                  000000                                                                                                                                                        
30001010010000000000000000110300005204165273854293    Pegaso SA CVMARISSA,PERALTA/RAMOS                                                                                                                                                                              000000                                                                                                                                                        
30001010010000000000000000111300005256782855228592    Pegaso SA CVJOSE BRAULIO,HERNANDEZ/MELO                                                                                                                                                                        000000                                                                                                                                                        
30001010010000000000000000112300005256782855227198    Pegaso SA CVCLAUDIA CRISTINA,GALICIA/ILLESCAS                                                                                                                                                                  000000                                                                                                                                                        
30001010010000000000000000113300005256782855228394    Pegaso SA CVGUSTAVO EDUARDO,ORTIZ/LOPEZ                                                                                                                                                                        000000                                                                                                                                                        
30001010010000000000000000114300005256782855225192    Pegaso SA CVCUAUHTEMOC ESTRADA,MATIAS/                                                                                                                                                                         000000                                                                                                                                                        
30001010010000000000000000115300005256782855225598    Pegaso SA CVMARCO ANTONIO,HERNADEZ/DE LA ROSA                                                                                                                                                                  000000                                                                                                                                                        
30001010010000000000000000116300005256782855227990    Pegaso SA CVJOSE GUADALUPE,TELLEZ/PEREZ                                                                                                                                                                        000000                                                                                                                                                        
30001010010000000000000000117300005256782855227891    Pegaso SA CVANGELICA IVONNE,FLORES/SANCHES                                                                                                                                                                     000000                                                                                                                                                        
30001010010000000000000000118300005256782855227792    Pegaso SA CVERIKA PATRICIA,GARCIA/YAÑEZ                                                                                                                                                                        000000                                                                                                                                                        
30001010010000000000000000119300005256782855227594    Pegaso SA CVVELAZCO GARCIA,WENDY/ALEJANDRA                                                                                                                                                                     000000                                                                                                                                                        
30001010010000000000000000120300005256782855225291    Pegaso SA CVALHELI VIRIDIANA,ZUÑIGA/ESPINO                                                                                                                                                                     000000                                                                                                                                                        
30001010010000000000000000121300005256782855225093    Pegaso SA CVALEJANDRO,RAMIREZ/OLIVARES                                                                                                                                                                         000000                                                                                                                                                        
30001010010000000000000000122300005256782855225390    Pegaso SA CVJULIO CESAR,MEDRANO/REYES                                                                                                                                                                          000000                                                                                                                                                        
30001010010000000000000000123300005256782855228295    Pegaso SA CVMANUEL,CASTILLO/AVILA                                                                                                                                                                              000000                                                                                                                                                        
30001010010000000000000000124300005256782592820099    Pegaso SA CVALMA ROSA,ORTIZ/POHLENZ                                                                                                                                                                            000000                                                                                                                                                        
30001010010000000000000000125300005256782855227099    Pegaso SA CVCLAUDIA EUNICE,TUXPAN/MORENO                                                                                                                                                                       000000                                                                                                                                                        
30001010010000000000000000126300005256782855227693    Pegaso SA CVRAFAEL,CASTRO/SANCHEZ                                                                                                                                                                              000000                                                                                                                                                        
30001010010000000000000000127300005256782855224997    Pegaso SA CVJAZMIN,ROA/BECERRIL                                                                                                                                                                                000000                                                                                                                                                        
4001000011000000000000003078000001000000000000003078
10000984975071810310001FERRETERA PEGASO SA DE CV          Pago de nomina      15D01
210010000000000000030780100000000070046234055000011
30001010010000000000000000101300005256782201141994    Pegaso SA CVANAYELI,MARTINEZ/TORRIJOS                                                                                                                                                                          000000                                                                                                                                                        
30001010010000000000000000102300005177126760141696    Pegaso SA CVKARLA FABIOLA,ZARAGOZA/HERNANDEZ                                                                                                                                                                   000000                                                                                                                                                        
30001010010000000000000000103300005256782855226596    Pegaso SA CVARTURO,ROSALES/ESCAMILLA                                                                                                                                                                           000000                                                                                                                                                        
30001010010000000000000000104300005256782855225499    Pegaso SA CVAURORA LAURA,VAZQUEZ/AGIS                                                                                                                                                                          000000                                                                                                                                                        
30001010010000000000000000105300005204165312419694    Pegaso SA CVYULIANA,GARCIA/GUTIERREZ                                                                                                                                                                           000000                                                                                                                                                        
30001010010000000000000000106300005256782855227495    Pegaso SA CVJOSUE CARLOS,GONZALEZ/PELLEGRINI                                                                                                                                                                   000000                                                                                                                                                        
30001010010000000000000000107300005256782344904696    Pegaso SA CVJORGE ALBERTO,LUVINOFF/ARROYO                                                                                                                                                                      000000                                                                                                                                                        
30001010010000000000000000108300005256782855228493    Pegaso SA CVJUAN MANUEL,ELIZONDO/LOPEZ                                                                                                                                                                         000000                                                                                                                                                        
30001010010000000000000000109300005204165312330990    Pegaso SA CVJENNIFER LIZETH,HERNANDEZ/BEZARES                                                                                                                                                                  000000                                                                                                                                                        
30001010010000000000000000110300005204165273854293    Pegaso SA CVMARISSA,PERALTA/RAMOS                                                                                                                                                                              000000                                                                                                                                                        
30001010010000000000000000111300005256782855228592    Pegaso SA CVJOSE BRAULIO,HERNANDEZ/MELO                                                                                                                                                                        000000                                                                                                                                                        
30001010010000000000000000112300005256782855227198    Pegaso SA CVCLAUDIA CRISTINA,GALICIA/ILLESCAS                                                                                                                                                                  000000                                                                                                                                                        
30001010010000000000000000113300005256782855228394    Pegaso SA CVGUSTAVO EDUARDO,ORTIZ/LOPEZ                                                                                                                                                                        000000                                                                                                                                                        
30001010010000000000000000114300005256782855225192    Pegaso SA CVCUAUHTEMOC ESTRADA,MATIAS/                                                                                                                                                                         000000                                                                                                                                                        
30001010010000000000000000115300005256782855225598    Pegaso SA CVMARCO ANTONIO,HERNADEZ/DE LA ROSA                                                                                                                                                                  000000                                                                                                                                                        
30001010010000000000000000116300005256782855227990    Pegaso SA CVJOSE GUADALUPE,TELLEZ/PEREZ                                                                                                                                                                        000000                                                                                                                                                        
30001010010000000000000000117300005256782855227891    Pegaso SA CVANGELICA IVONNE,FLORES/SANCHES                                                                                                                                                                     000000                                                                                                                                                        
30001010010000000000000000118300005256782855227792    Pegaso SA CVERIKA PATRICIA,GARCIA/YAÑEZ                                                                                                                                                                        000000                                                                                                                                                        
30001010010000000000000000119300005256782855227594    Pegaso SA CVVELAZCO GARCIA,WENDY/ALEJANDRA                                                                                                                                                                     000000                                                                                                                                                        
30001010010000000000000000120300005256782855225291    Pegaso SA CVALHELI VIRIDIANA,ZUÑIGA/ESPINO                                                                                                                                                                     000000                                                                                                                                                        
30001010010000000000000000121300005256782855225093    Pegaso SA CVALEJANDRO,RAMIREZ/OLIVARES                                                                                                                                                                         000000                                                                                                                                                        
30001010010000000000000000122300005256782855225390    Pegaso SA CVJULIO CESAR,MEDRANO/REYES                                                                                                                                                                          000000                                                                                                                                                        
30001010010000000000000000123300005256782855228295    Pegaso SA CVMANUEL,CASTILLO/AVILA                                                                                                                                                                              000000                                                                                                                                                        
30001010010000000000000000124300005256782592820099    Pegaso SA CVALMA ROSA,ORTIZ/POHLENZ                                                                                                                                                                            000000                                                                                                                                                        
30001010010000000000000000125300005256782855227099    Pegaso SA CVCLAUDIA EUNICE,TUXPAN/MORENO                                                                                                                                                                       000000                                                                                                                                                        
30001010010000000000000000126300005256782855227693    Pegaso SA CVRAFAEL,CASTRO/SANCHEZ                                                                                                                                                                              000000                                                                                                                                                        
30001010010000000000000000127300005256782855224997    Pegaso SA CVJAZMIN,ROA/BECERRIL                                                                                                                                                                                000000                                                                                                                                                        
4001000011000000000000003078000001000000000000003078
10000984975071810310001FERRETERA PEGASO SA DE CV          Pago de nomina      15D01
210010000000000000030780100000000070046234055000011
30001010010000000000000000101300005256782201141994    Pegaso SA CVANAYELI,MARTINEZ/TORRIJOS                                                                                                                                                                          000000                                                                                                                                                        
30001010010000000000000000102300005177126760141696    Pegaso SA CVKARLA FABIOLA,ZARAGOZA/HERNANDEZ                                                                                                                                                                   000000                                                                                                                                                        
30001010010000000000000000103300005256782855226596    Pegaso SA CVARTURO,ROSALES/ESCAMILLA                                                                                                                                                                           000000                                                                                                                                                        
30001010010000000000000000104300005256782855225499    Pegaso SA CVAURORA LAURA,VAZQUEZ/AGIS                                                                                                                                                                          000000                                                                                                                                                        
30001010010000000000000000105300005204165312419694    Pegaso SA CVYULIANA,GARCIA/GUTIERREZ                                                                                                                                                                           000000                                                                                                                                                        
30001010010000000000000000106300005256782855227495    Pegaso SA CVJOSUE CARLOS,GONZALEZ/PELLEGRINI                                                                                                                                                                   000000                                                                                                                                                        
30001010010000000000000000107300005256782344904696    Pegaso SA CVJORGE ALBERTO,LUVINOFF/ARROYO                                                                                                                                                                      000000                                                                                                                                                        
30001010010000000000000000108300005256782855228493    Pegaso SA CVJUAN MANUEL,ELIZONDO/LOPEZ                                                                                                                                                                         000000                                                                                                                                                        
30001010010000000000000000109300005204165312330990    Pegaso SA CVJENNIFER LIZETH,HERNANDEZ/BEZARES                                                                                                                                                                  000000                                                                                                                                                        
30001010010000000000000000110300005204165273854293    Pegaso SA CVMARISSA,PERALTA/RAMOS                                                                                                                                                                              000000                                                                                                                                                        
30001010010000000000000000111300005256782855228592    Pegaso SA CVJOSE BRAULIO,HERNANDEZ/MELO                                                                                                                                                                        000000                                                                                                                                                        
30001010010000000000000000112300005256782855227198    Pegaso SA CVCLAUDIA CRISTINA,GALICIA/ILLESCAS                                                                                                                                                                  000000                                                                                                                                                        
30001010010000000000000000113300005256782855228394    Pegaso SA CVGUSTAVO EDUARDO,ORTIZ/LOPEZ                                                                                                                                                                        000000                                                                                                                                                        
30001010010000000000000000114300005256782855225192    Pegaso SA CVCUAUHTEMOC ESTRADA,MATIAS/                                                                                                                                                                         000000                                                                                                                                                        
30001010010000000000000000115300005256782855225598    Pegaso SA CVMARCO ANTONIO,HERNADEZ/DE LA ROSA                                                                                                                                                                  000000                                                                                                                                                        
30001010010000000000000000116300005256782855227990    Pegaso SA CVJOSE GUADALUPE,TELLEZ/PEREZ                                                                                                                                                                        000000                                                                                                                                                        
30001010010000000000000000117300005256782855227891    Pegaso SA CVANGELICA IVONNE,FLORES/SANCHES                                                                                                                                                                     000000                                                                                                                                                        
30001010010000000000000000118300005256782855227792    Pegaso SA CVERIKA PATRICIA,GARCIA/YAÑEZ                                                                                                                                                                        000000                                                                                                                                                        
30001010010000000000000000119300005256782855227594    Pegaso SA CVVELAZCO GARCIA,WENDY/ALEJANDRA                                                                                                                                                                     000000                                                                                                                                                        
30001010010000000000000000120300005256782855225291    Pegaso SA CVALHELI VIRIDIANA,ZUÑIGA/ESPINO                                                                                                                                                                     000000                                                                                                                                                        
30001010010000000000000000121300005256782855225093    Pegaso SA CVALEJANDRO,RAMIREZ/OLIVARES                                                                                                                                                                         000000                                                                                                                                                        
30001010010000000000000000122300005256782855225390    Pegaso SA CVJULIO CESAR,MEDRANO/REYES                                                                                                                                                                          000000                                                                                                                                                        
30001010010000000000000000123300005256782855228295    Pegaso SA CVMANUEL,CASTILLO/AVILA                                                                                                                                                                              000000                                                                                                                                                        
30001010010000000000000000124300005256782592820099    Pegaso SA CVALMA ROSA,ORTIZ/POHLENZ                                                                                                                                                                            000000                                                                                                                                                        
30001010010000000000000000125300005256782855227099    Pegaso SA CVCLAUDIA EUNICE,TUXPAN/MORENO                                                                                                                                                                       000000                                                                                                                                                        
30001010010000000000000000126300005256782855227693    Pegaso SA CVRAFAEL,CASTRO/SANCHEZ                                                                                                                                                                              000000                                                                                                                                                        
30001010010000000000000000127300005256782855224997    Pegaso SA CVJAZMIN,ROA/BECERRIL                                                                                                                                                                                000000                                                                                                                                                        
4001000011000000000000003078000001000000000000003078
10000984975071810310001FERRETERA PEGASO SA DE CV          Pago de nomina      15D01
210010000000000000030780100000000070046234055000011
30001010010000000000000000101300005256782201141994    Pegaso SA CVANAYELI,MARTINEZ/TORRIJOS                                                                                                                                                                          000000                                                                                                                                                        
30001010010000000000000000102300005177126760141696    Pegaso SA CVKARLA FABIOLA,ZARAGOZA/HERNANDEZ                                                                                                                                                                   000000                                                                                                                                                        
30001010010000000000000000103300005256782855226596    Pegaso SA CVARTURO,ROSALES/ESCAMILLA                                                                                                                                                                           000000                                                                                                                                                        
30001010010000000000000000104300005256782855225499    Pegaso SA CVAURORA LAURA,VAZQUEZ/AGIS                                                                                                                                                                          000000                                                                                                                                                        
30001010010000000000000000105300005204165312419694    Pegaso SA CVYULIANA,GARCIA/GUTIERREZ                                                                                                                                                                           000000                                                                                                                                                        
30001010010000000000000000106300005256782855227495    Pegaso SA CVJOSUE CARLOS,GONZALEZ/PELLEGRINI                                                                                                                                                                   000000                                                                                                                                                        
30001010010000000000000000107300005256782344904696    Pegaso SA CVJORGE ALBERTO,LUVINOFF/ARROYO                                                                                                                                                                      000000                                                                                                                                                        
30001010010000000000000000108300005256782855228493    Pegaso SA CVJUAN MANUEL,ELIZONDO/LOPEZ                                                                                                                                                                         000000                                                                                                                                                        
30001010010000000000000000109300005204165312330990    Pegaso SA CVJENNIFER LIZETH,HERNANDEZ/BEZARES                                                                                                                                                                  000000                                                                                                                                                        
30001010010000000000000000110300005204165273854293    Pegaso SA CVMARISSA,PERALTA/RAMOS                                                                                                                                                                              000000                                                                                                                                                        
30001010010000000000000000111300005256782855228592    Pegaso SA CVJOSE BRAULIO,HERNANDEZ/MELO                                                                                                                                                                        000000                                                                                                                                                        
30001010010000000000000000112300005256782855227198    Pegaso SA CVCLAUDIA CRISTINA,GALICIA/ILLESCAS                                                                                                                                                                  000000                                                                                                                                                        
30001010010000000000000000113300005256782855228394    Pegaso SA CVGUSTAVO EDUARDO,ORTIZ/LOPEZ                                                                                                                                                                        000000                                                                                                                                                        
30001010010000000000000000114300005256782855225192    Pegaso SA CVCUAUHTEMOC ESTRADA,MATIAS/                                                                                                                                                                         000000                                                                                                                                                        
30001010010000000000000000115300005256782855225598    Pegaso SA CVMARCO ANTONIO,HERNADEZ/DE LA ROSA                                                                                                                                                                  000000                                                                                                                                                        
30001010010000000000000000116300005256782855227990    Pegaso SA CVJOSE GUADALUPE,TELLEZ/PEREZ                                                                                                                                                                        000000                                                                                                                                                        
30001010010000000000000000117300005256782855227891    Pegaso SA CVANGELICA IVONNE,FLORES/SANCHES                                                                                                                                                                     000000                                                                                                                                                        
30001010010000000000000000118300005256782855227792    Pegaso SA CVERIKA PATRICIA,GARCIA/YAÑEZ                                                                                                                                                                        000000                                                                                                                                                        
30001010010000000000000000119300005256782855227594    Pegaso SA CVVELAZCO GARCIA,WENDY/ALEJANDRA                                                                                                                                                                     000000                                                                                                                                                        
30001010010000000000000000120300005256782855225291    Pegaso SA CVALHELI VIRIDIANA,ZUÑIGA/ESPINO                                                                                                                                                                     000000                                                                                                                                                        
30001010010000000000000000121300005256782855225093    Pegaso SA CVALEJANDRO,RAMIREZ/OLIVARES                                                                                                                                                                         000000                                                                                                                                                        
30001010010000000000000000122300005256782855225390    Pegaso SA CVJULIO CESAR,MEDRANO/REYES                                                                                                                                                                          000000                                                                                                                                                        
30001010010000000000000000123300005256782855228295    Pegaso SA CVMANUEL,CASTILLO/AVILA                                                                                                                                                                              000000                                                                                                                                                        
30001010010000000000000000124300005256782592820099    Pegaso SA CVALMA ROSA,ORTIZ/POHLENZ                                                                                                                                                                            000000                                                                                                                                                        
30001010010000000000000000125300005256782855227099    Pegaso SA CVCLAUDIA EUNICE,TUXPAN/MORENO                                                                                                                                                                       000000                                                                                                                                                        
30001010010000000000000000126300005256782855227693    Pegaso SA CVRAFAEL,CASTRO/SANCHEZ                                                                                                                                                                              000000                                                                                                                                                        
30001010010000000000000000127300005256782855224997    Pegaso SA CVJAZMIN,ROA/BECERRIL                                                                                                                                                                                000000                                                                                                                                                        
4001000011000000000000003078000001000000000000003078
10000984975071810310001FERRETERA PEGASO SA DE CV          Pago de nomina      15D01
210010000000000000030780100000000070046234055000011
30001010010000000000000000101300005256782201141994    Pegaso SA CVANAYELI,MARTINEZ/TORRIJOS                                                                                                                                                                          000000                                                                                                                                                        
30001010010000000000000000102300005177126760141696    Pegaso SA CVKARLA FABIOLA,ZARAGOZA/HERNANDEZ                                                                                                                                                                   000000                                                                                                                                                        
30001010010000000000000000103300005256782855226596    Pegaso SA CVARTURO,ROSALES/ESCAMILLA                                                                                                                                                                           000000                                                                                                                                                        
30001010010000000000000000104300005256782855225499    Pegaso SA CVAURORA LAURA,VAZQUEZ/AGIS                                                                                                                                                                          000000                                                                                                                                                        
30001010010000000000000000105300005204165312419694    Pegaso SA CVYULIANA,GARCIA/GUTIERREZ                                                                                                                                                                           000000                                                                                                                                                        
30001010010000000000000000106300005256782855227495    Pegaso SA CVJOSUE CARLOS,GONZALEZ/PELLEGRINI                                                                                                                                                                   000000                                                                                                                                                        
30001010010000000000000000107300005256782344904696    Pegaso SA CVJORGE ALBERTO,LUVINOFF/ARROYO                                                                                                                                                                      000000                                                                                                                                                        
30001010010000000000000000108300005256782855228493    Pegaso SA CVJUAN MANUEL,ELIZONDO/LOPEZ                                                                                                                                                                         000000                                                                                                                                                        
30001010010000000000000000109300005204165312330990    Pegaso SA CVJENNIFER LIZETH,HERNANDEZ/BEZARES                                                                                                                                                                  000000                                                                                                                                                        
30001010010000000000000000110300005204165273854293    Pegaso SA CVMARISSA,PERALTA/RAMOS                                                                                                                                                                              000000                                                                                                                                                        
30001010010000000000000000111300005256782855228592    Pegaso SA CVJOSE BRAULIO,HERNANDEZ/MELO                                                                                                                                                                        000000                                                                                                                                                        
30001010010000000000000000112300005256782855227198    Pegaso SA CVCLAUDIA CRISTINA,GALICIA/ILLESCAS                                                                                                                                                                  000000                                                                                                                                                        
30001010010000000000000000113300005256782855228394    Pegaso SA CVGUSTAVO EDUARDO,ORTIZ/LOPEZ                                                                                                                                                                        000000                                                                                                                                                        
30001010010000000000000000114300005256782855225192    Pegaso SA CVCUAUHTEMOC ESTRADA,MATIAS/                                                                                                                                                                         000000                                                                                                                                                        
30001010010000000000000000115300005256782855225598    Pegaso SA CVMARCO ANTONIO,HERNADEZ/DE LA ROSA                                                                                                                                                                  000000                                                                                                                                                        
30001010010000000000000000116300005256782855227990    Pegaso SA CVJOSE GUADALUPE,TELLEZ/PEREZ                                                                                                                                                                        000000                                                                                                                                                        
30001010010000000000000000117300005256782855227891    Pegaso SA CVANGELICA IVONNE,FLORES/SANCHES                                                                                                                                                                     000000                                                                                                                                                        
30001010010000000000000000118300005256782855227792    Pegaso SA CVERIKA PATRICIA,GARCIA/YAÑEZ                                                                                                                                                                        000000                                                                                                                                                        
30001010010000000000000000119300005256782855227594    Pegaso SA CVVELAZCO GARCIA,WENDY/ALEJANDRA                                                                                                                                                                     000000                                                                                                                                                        
30001010010000000000000000120300005256782855225291    Pegaso SA CVALHELI VIRIDIANA,ZUÑIGA/ESPINO                                                                                                                                                                     000000                                                                                                                                                        
30001010010000000000000000121300005256782855225093    Pegaso SA CVALEJANDRO,RAMIREZ/OLIVARES                                                                                                                                                                         000000                                                                                                                                                        
30001010010000000000000000122300005256782855225390    Pegaso SA CVJULIO CESAR,MEDRANO/REYES                                                                                                                                                                          000000                                                                                                                                                        
30001010010000000000000000123300005256782855228295    Pegaso SA CVMANUEL,CASTILLO/AVILA                                                                                                                                                                              000000                                                                                                                                                        
30001010010000000000000000124300005256782592820099    Pegaso SA CVALMA ROSA,ORTIZ/POHLENZ                                                                                                                                                                            000000                                                                                                                                                        
30001010010000000000000000125300005256782855227099    Pegaso SA CVCLAUDIA EUNICE,TUXPAN/MORENO                                                                                                                                                                       000000                                                                                                                                                        
30001010010000000000000000126300005256782855227693    Pegaso SA CVRAFAEL,CASTRO/SANCHEZ                                                                                                                                                                              000000                                                                                                                                                        
30001010010000000000000000127300005256782855224997    Pegaso SA CVJAZMIN,ROA/BECERRIL                                                                                                                                                                                000000                                                                                                                                                        
4001000011000000000000003078000001000000000000003078
