002180045872196096MXP0000000999999.00DISTRIBUIDORA E IMPORTADORA DE98_DISTRIBUIDORA E IMPORTADORA
002180087000187262MXP0000000999999.00GIMBEL MEXICANA S.A. DE C.V.  99_GIMBEL MEXICANA S.A. DE C.V
002180037048019119MXP0000000999999.00CUPRUM SA DE CV SUC MARINA    100_CUPRUM SA DE CV SUC MARINA
002180024268514850MXP0000000999999.00DISTRIBUIDORA FIBERGLASS DE ME101_DISTRIBUIDORA FIBERGLASS D
002180010010798126MXP0000000999999.00CASA DIAZ DE MAQUINAS DE COSER103_CASA DIAZ DE MAQUINAS DE C
000000000145877431MXP0000000999999.00GRUPO FERREBANOS MAYORISTAS S.104_GRUPO FERREBANOS MAYORISTA
002180018317751376MXP0000000999999.00CASA ONIS S.A DE C.V          107_CASA ONIS S.A DE C.V      
000000000110183288MXP0000000999999.00M S T PRODUCTOS Y SERVICIOS S.109_M S T PRODUCTOS Y SERVICIO
012180004438548174MXP0000000999999.00GRUPO PRE-MEX S.A. DE C.V.    110_GRUPO PRE-MEX S.A. DE C.V.
002180050559270916MXP0000000999999.00CINTAS COVE S.A DE C.V        111_CINTAS COVE S.A DE C.V    
002180014106917590MXP0000000999999.00GUIA ROJI S.A. DE C.V.        112_GUIA ROJI S.A. DE C.V.    
012111111187875555MXP0000000999999.00CITY CLUB/ TIENDAS SORIANA S.A114_CITY CLUB/ TIENDAS SORIANA
021180040109947392MXP0000000999999.00COMERCIALIZADORA DUBLIN  SA DE116_COMERCIALIZADORA DUBLIN  S
002180700027486045MXP0000000999999.00DISTRIBUIDORA PHOTO SMART S.A.117_DISTRIBUIDORA PHOTO SMART 
002180026872257352MXP0000000999999.00IMPORTACIONES BARRETO S.A DE C120_IMPORTACIONES BARRETO S.A 
002180700578595618MXP0000000999999.00HERRAMIENTAS MILWAUKEE, S.A. D121_HERRAMIENTAS MILWAUKEE, S.
002180018306992324MXP0000000999999.00DISTRIBUIDORA TAMEX S.A. DE C.122_DISTRIBUIDORA TAMEX S.A. D
002180087000561642MXP0000000999999.00INDUSTRIAS TAMER SA DE CV     123_INDUSTRIAS TAMER SA DE CV 
072180008314244570MXP0000000999999.00HERRAMIENTAS TECNICAS S.A. DE 124_HERRAMIENTAS TECNICAS S.A.
012180004440820288MXP0000000999999.00INFRA S.A DE C.V (SUC. TLALNE)127_INFRA S.A DE C.V (SUC. TLA
002180013641780144MXP0000000999999.00DOMINION INDUSTRIAL S.A. DE C.134_DOMINION INDUSTRIAL S.A. D
002580008777305574MXP0000000999999.00HOME DEPOT S. DE R.L. DE C.V. 131_HOME DEPOT S. DE R.L. DE C
036180160030300106MXP0000000999999.00HYGOLET S.A. DE C.V.          132_HYGOLET S.A. DE C.V.      
072180002473272162MXP0000000999999.00JAD SUMINISTROS S.A DE C.V    136_JAD SUMINISTROS S.A DE C.V
002180087005502907MXP0000000999999.00KLEIN TOOLS DE MEXICO S. DE R.139_KLEIN TOOLS DE MEXICO S. D
002540409700845941MXP0000000999999.00JAR DEPOT S.A DE C.V          143_JAR DEPOT S.A DE C.V      
002180023360817029MXP0000000999999.00LA CENTRAL DE FORJAS Y CERRADU144_LA CENTRAL DE FORJAS Y CER
072180005322248338MXP0000000999999.00NOVELSA S.A DE C.V            149_NOVELSA S.A DE C.V        
000000000186682545MXP0000000999999.00LEADER DISTRIBUCION S.A DE C.V155_LEADER DISTRIBUCION S.A DE
132180000062958085MXP0000000999999.00BUBBLE CLEAN S.A DE C.V       158_BUBBLE CLEAN S.A DE C.V   
021180040282287322MXP0000000999999.00C Y G COMERCIAL S.A DE C.V    159_C Y G COMERCIAL S.A DE C.V
044180001035241324MXP0000000999999.00CASA IKEDA S.A DE CV          162_CASA IKEDA S.A DE CV      
002180650212024061MXP0000000999999.00CIA SHERWIN WILLIAMS S.A DE C.166_CIA SHERWIN WILLIAMS S.A D
002180650212024061MXP0000000999999.00CIA SHERWIN WILLIAMS S.A DE C.168_CIA SHERWIN WILLIAMS S.A D
002180063369211107MXP0000000999999.00TORNILLOS BAHERS, S.A. DE C.V.171_TORNILLOS BAHERS, S.A. DE 
000000000448453802MXP0000000999999.00COMPAÑIA HULERA VULCANO, S.A. 173_COMPAÑIA HULERA VULCANO, S
000000000447143699MXP0000000999999.00CONEXIONES Y MANGUERAS DEL NOR174_CONEXIONES Y MANGUERAS DEL
021180040217404361MXP0000000999999.00FERRETERIA DE CORREGIDORA S.A.182_FERRETERIA DE CORREGIDORA 
000000000157177526MXP0000000999999.00LIFTOR S.A. DE C.V.           183_LIFTOR S.A. DE C.V.       
002180021873217464MXP0000000999999.00TUBOS MONTERREY S.A DE CV     184_TUBOS MONTERREY S.A DE CV 
014320655052946835MXP0000000999999.00REPRESENTACIONES VARIAS DE IND188_REPRESENTACIONES VARIAS DE
002180012500420821MXP0000000999999.00SALCEDO Y MARTIN S. DE R.L. DE189_SALCEDO Y MARTIN S. DE R.L
000000000170347779MXP0000000999999.00SILVERPLASTIC TUBERIAS Y CONEX190_SILVERPLASTIC TUBERIAS Y C
000000000105941679MXP0000000999999.00DISTRIBUIDORA PVC PUENTE DE VI191_DISTRIBUIDORA PVC PUENTE D
002680437200147864MXP0000000999999.00STAINLESS MACRO TRADE S.A DE C192_STAINLESS MACRO TRADE S.A 
002180063741422491MXP0000000999999.00TAMAYO ERGUERA ROSAURA VIOLETA194_TAMAYO ERGUERA ROSAURA VIO
